:020000040800F2
:10000000C05400206D020008CB400008293A0008C7
:10001000C9400008EF0600083D5900080000000034
:10002000000000000000000000000000DB400008AD
:10003000AD07000800000000D9400008DD400008BE
:10004000870200088702000887020008870200086C
:100050008702000887020008AF070008870200082F
:1000600087020008B5070008BB07000887020008E0
:100070004D070008590700088702000865070008B7
:10008000870200088702000887020008870200082C
:10009000F1060008FD06000887020008C1070008F5
:1000A000870200088702000887020008870200080C
:1000B0008702000887020008F14000088702000854
:1000C00087020008870200088702000887020008EC
:1000D00087020008F142000887020008FD4200087C
:1000E00087020008870200088702000887020008CC
:1000F00087020008870200088702000887020008BC
:100100008702000887020008FD40000887020008F7
:10011000870200088702000887020008870200089B
:1001200087020008710700087D070008890700089A
:10013000870200088702000887020008870200087B
:10014000090700081507000887020008CD400008CD
:1001500095070008A1070008870200080943000866
:10016000870200088702000887020008870200084B
:1001700087020008870200088702000800000000CC
:10018000870200088702000800F002F800F05EF81D
:100190000AA090E8000C82448344AAF10107DA45E2
:1001A00001D100F053F8AFF2090EBAE80F0013F0D6
:1001B000010F18BFFB1A43F00103184710A70000F6
:1001C00030A700000A444FF0000C10F8013B13F078
:1001D000070408BF10F8014B1D1108BF10F8015BA0
:1001E000641E05D010F8016B641E01F8016BF9D193
:1001F00013F0080F1EBF10F8014BAD1C0C1B09D1EA
:100200006D1E58BF01F801CBFAD505E014F8016B5B
:1002100001F8016B6D1EF9D59142D6D370470000ED
:100220000023002400250026103A28BF78C1FBD8FF
:10023000520728BF30C148BF0B6070471FB50AF096
:1002400075F800F06DF91FBD10B510BD00F097F9FD
:100250001146FFF7F3FF08F0CBFF00F0B5F903B448
:10026000FFF7F2FF03BC00F0C5F900000948804722
:1002700009480047FEE7FEE7FEE7FEE7FEE7FEE788
:10028000FEE7FEE7FEE7FEE704480549054A064BA0
:1002900070470000E140000889010008C0360020D6
:1002A000C0540020C0450020C045002053EA020C85
:1002B00000F069802DE9F04B4FF00006002B1FBFC6
:1002C000B3FA83F503FA05F424FA05F65E4012BF8B
:1002D0001643B2FA82F502FA05F4C5F120051EBFF5
:1002E00022FA05FC44EA0C04203556EA044C4FEA95
:1002F000144418BF641C4FF000084FF000099042EE
:1003000071EB030C39D3002919BFB1FA81F701FA57
:1003100007F6B0FA80F700FA07F6C7F120071EBF0C
:1003200020FA07FC46EA0C062037B6FBF4FCA7EBE4
:100330000507103F07F01F0BCBF120060CFA0BFB53
:100340002CFA06F644BFB3460026202FA4BF5E4613
:100350004FF0000B5BEA060C08BF4FF0010B19EBE6
:100360000B09ABFB027C48EB0608C01B06FB02CC6A
:100370000BFB03CC71EB0C01C1E70B460246414677
:100380004846BDE8F08B13B54FF000004FF0000178
:10039000AFF30080BDE81C407047032A40F2308074
:1003A00010F0030C00F0158011F8013BBCF1020FB6
:1003B000624498BF11F801CB00F8013B38BF11F837
:1003C000013BA2F1040298BF00F801CB38BF00F84E
:1003D000013B11F0030300F02580083AC0F00880CB
:1003E00051F8043B083A51F804CBA0E80810F5E7AF
:1003F000121D5CBF51F8043B40F8043BAFF3008092
:10040000D20724BF11F8013B11F801CB48BF11F806
:10041000012B24BF00F8013B00F801CB48BF00F8D6
:10042000012B704710B5203AC0F00B80B1E818508E
:10043000203AA0E81850B1E81850A0E81850BFF4CE
:10044000F5AF5FEA027C24BFB1E81850A0E818506D
:1004500044BF18C918C0BDE810405FEA827C24BFC1
:1004600051F8043B40F8043B08BF7047D20728BF4F
:1004700031F8023B48BF11F8012B28BF20F8023B9E
:1004800048BF00F8012B70474FF000020429C0F06C
:10049000128010F0030C00F01B80CCF1040CBCF1B6
:1004A000020F18BF00F8012BA8BF20F8022BA1EB08
:1004B0000C0100F00DB85FEAC17C24BF00F8012BED
:1004C00000F8012B48BF00F8012B70474FF00002E5
:1004D00000B5134694469646203922BFA0E80C503A
:1004E000A0E80C50B1F12001BFF4F7AF090728BF15
:1004F000A0E80C5048BF0CC05DF804EB890028BF91
:1005000040F8042B08BF704748BF20F8022B11F0B9
:10051000804F18BF00F8012B704770477047704735
:1005200070B5064C7C44064D7D4403E020682044B1
:100530008047241DAC42F9D170BD0000C4A3000067
:10054000E8A3000000487047603600201FB584B063
:1005500000200A9C06AB04AA02A90094AFF3008015
:1005600018B1DDE9020108B010BD0348204000F0D9
:1005700039F800200146F6E70000207C70477546F8
:10058000FFF7E0FFAE4605006946534620F007003E
:10059000854618B020B5FFF777FEBDE820404FF044
:1005A00000064FF000074FF000084FF0000B21F05D
:1005B0000701AC46ACE8C009ACE8C009ACE8C0092A
:1005C000ACE8C0098D46704710B50446AFF3008013
:1005D0002046BDE81040FFF742BE002801D000F0E1
:1005E00009B8704710B500F025F8BDE81040FFF7D6
:1005F000F4BF000001491820ABBEFEE72600020050
:1006000070B505460C460A2000E06D1C00F068F845
:1006100035B128780028F8D102E0641C00F060F8B9
:1006200014B120780028F8D1BDE870400A2000F00D
:1006300057B8000010B5022803D0410103D50DA121
:1006400012E0002010BD010101D50FA10CE0C10096
:1006500001D511A108E0810001D512A104E04000FC
:1006600001D513A100E0002115A0FFF7C9FF01206B
:1006700010BD0000496E76616C6964204F70657230
:100680006174696F6E000000446976696465204298
:1006900079205A65726F00004F766572666C6F77CD
:1006A00000000000556E646572666C6F7700000094
:1006B000496E657861637420526573756C740000CF
:1006C0005349474650453A2041726974686D6574D4
:1006D000696320657863657074696F6E3A20000005
:1006E00008B569468DF800000320ABBE08BDFEE7E3
:1006F000014800F001BA00003C030020014800F06E
:10070000FBB900003C030020014800F0F5B90000EF
:1007100064030020014800F0EFB9000064030020EA
:1007200010B50A460849D1F8BC12D1F814120029B4
:1007300001D0012010BD0146034803F015FFBDE8BC
:100740001040014803F097BF5C1B0020014800F0F7
:10075000EDBC00004C080020014800F0E7BC0000A0
:10076000E0030020014800F0E1BC0000400400204C
:10077000014800F0DBBC0000AC080020014800F09C
:10078000D5BC0000F8040020014800F0CFBC0000F8
:1007900058050020014800F0C9BC0000EC0700200B
:1007A000014800F0C3BC00000C0900207047012084
:1007B00000F05ABE082000F057BE102000F054BED2
:1007C000202000F051BE72B6FEE790F82020012AEA
:1007D00007D0022A05D0416A41F4802141620120FC
:1007E0007047006842690A43426100207047F0B5D3
:1007F00090F820500468A468012D07D0022D05D080
:10080000416A41F4802141620120F0BD04F080651D
:1008100004F00066354301D1E5005BD5C4F3016403
:10082000022C05D9416A41F4000141620120F0BD6A
:100830000125A5401D608B684FF4C0759BB1CE6843
:1008400005EB041733434E6843EAC6030668F351C9
:100850004FF4C273076803EB04130E69FE50097D61
:10086000012909D00DE00E88CB6805EB041743EA97
:1008700046530668F351EBE70168CE5846F480769C
:10088000CE501179D379567941EA036193791B04EB
:1008900043EA062319434FF4C676036806EB0416B1
:1008A00099511178D37841EA0361937852781B0407
:1008B00043EA022211434FF4C473026803EB0413AA
:1008C000D150006805EB0411425842F00102425039
:1008D0000020F0BD416A41F4001141620120F0BDE9
:1008E00010B590F82020012A07D0022A05D0416ACD
:1008F00041F480214162012010BD3C4800F50070A8
:10090000026842F001020260026822F47C52026036
:1009100002684B6A42EA032202600A7D02F01F036A
:1009200001229A40C3699343C361A0F50070CB696B
:10093000B3B9D0F80C329343C0F80C328C894B68B1
:1009400064F31F434C6900EBC404C4F840320C89C3
:100950000B6864F31F434C6900EBC404C4F84432D1
:10096000CB69012B16D1D0F80C321343C0F80C32EE
:100970000C884B6864F31F434C6900EBC404C4F853
:1009800040320C89CB6864F31F434C6900EBC4040C
:10099000C4F844328B697BB1D0F804321343C0F8F9
:1009A00004320B6973B1D0F814321343C0F8143217
:1009B000096A01290CD010E0D0F804329343C0F842
:1009C0000432EEE7D0F814329343C0F81432EFE764
:1009D000D0F81C121143C0F81C12D0F8001221F0FC
:1009E0000101C0F80012002010BD000000640040AA
:1009F000704730B590F82040012C07D0022C05D06C
:100A0000416A41F480214162012030BD21B1046876
:100A10002469A4075FD003E00468E468A40754D005
:100A20004FF4D874056804EB01142D5905F0040542
:100A30009560F5B305682D59ED08556005682C598A
:100A400004F00204D4604FF4DA74056804EB011476
:100A50002D5905F00F05156105682D59C5F30725BA
:100A6000956105682C59240C54614FF4DC720468BC
:100A700002EB0112A4581C700468A458240A5C708C
:100A80000468A458240C9C700468A258120EDA70F2
:100A90004FF4DE72046802EB0112A4581C71046862
:100AA000A458240A5C710468A458240C9C7104683E
:100AB00000E016E0A258120EDA71B9B100680169BF
:100AC00041F020010161002030BD416A41F4001174
:100AD0004162012030BD416A41F4001141620120B0
:100AE00030BD05682D596D0D1560A7E70068C16818
:100AF00041F02001C160E6E72DE9F05F05460024E2
:100B000028684669D0F804908768D0F80CA0D0F81F
:100B100010B0D0F81880F10748D0F90714D001219F
:100B20008160B80703D5284600F0A0FA0CE07807EA
:100B300002D54FF4006407E0380702D54FF4805423
:100B400002E0284600F091FAF80516D529684FF41E
:100B500080708860B80503D5284600F089FA0CE05B
:100B6000780502D544F4005407E0380502D544F472
:100B7000804402E0284600F07AFAF80316D5296886
:100B80004FF480308860B80303D5284600F072FA2D
:100B90000CE0780302D544F4004407E0380302D5A2
:100BA00044F4803402E0284600F063FA300707D5A9
:100BB0005FEACA6004D544F4007429681020C86054
:100BC00070074FF0080707D55FEA0A7004D5286858
:100BD000C760284600F0C8F9B00706D52868C06885
:100BE000800702D0284600F0C1F9700607D55FEAF9
:100BF000CB6004D544F48064296810200861B006F5
:100C000007D55FEA0B7004D528680761284600F015
:100C1000D5F9F00606D528680069800702D0284675
:100C200000F0CEF9B00308D55FEAC96005D52968A0
:100C300010204860284600F0EBF9F00307D55FEA82
:100C4000097004D528684760284600F014FA30047B
:100C500046D55FEA497040D5F00504D55FEAC87013
:100C600001D044F00104B00504D55FEA887001D5D5
:100C700044F00204700504D55FEA487001D544F0E1
:100C80000404300529D518F0700F26D008F0700044
:100C9000402815D006DC102809D020280AD030289A
:100CA00016D10AE050280ED0602811D10EE044F091
:100CB00008040DE044F010040AE044F0200407E0CA
:100CC00044F0400404E044F0800401E044F4807403
:100CD0002868816921F070018161296804204860D9
:100CE000002C05D0686A204368622846FFF780FE22
:100CF000BDE8F09F70B50446002C03D094F82000A6
:100D000010B104E0012070BD204600F09DF820687D
:100D1000016841F00101016000F0A2FC05460526D2
:100D20000CE000F09DFC401B0A2807D9606A40F4E3
:100D30000030606284F82060012070BD2068406847
:100D4000C007EED02068016821F00201016000F0C8
:100D500087FC05460CE000F083FC401B0A2807D9FD
:100D6000606A40F40030606284F82060012070BD49
:100D7000206840688007EED4207E01283FD020689C
:100D8000016821F080010160607E01283DD020686B
:100D9000016821F040010160A07E01283BD020685D
:100DA000016821F020010160E07E012839D020682F
:100DB000016841F010010160207F012837D02068D0
:100DC000016821F008010160607F012835D02068AA
:100DD000016821F004010160D4E902010843D4E96B
:100DE0000412114308436168491E08432168C86121
:100DF00000206062012084F82000002070BD20687F
:100E0000016841F080010160BEE72068016841F09F
:100E100040010160C0E72068016841F020010160E5
:100E2000C2E72068016821F010010160C4E7206872
:100E3000016841F008010160C6E72068016841F0DF
:100E400004010160C8E700002DE9F04186B00446C6
:100E5000142101A8FFF73AFB3E4B3F4ADFF8F08030
:100E6000186821683C4C03260227401C10320025DC
:100E70004FF0090C41452FD11860012807D11068A7
:100E800040F000701060106800F000700090206862
:100E900040F008002060206800F0080000900196F3
:100EA000029703950496CDF814C001A92B4800F0D1
:100EB000E7FA00221146142000F094FD142000F0FF
:100EC00083FD00221146152000F08CFD152000F056
:100ED0007BFD06B0BDE8F081DFF884804145F8D1A4
:100EE000116841F080611160116801F0806100912A
:100EF0001860012807D1106840F000701060106879
:100F000000F000700090206840F00200206020682F
:100F100000F0020000906020019002970395049673
:100F2000CDF814C001A90F4800F0AAFA002211461A
:100F3000402000F057FD402000F046FD0022114601
:100F4000412000F04FFD412000F03EFDC1E70000D0
:100F5000006400400400002030380240000C0240D1
:100F600000680040000402407047000010B5104ABD
:100F7000016891420BD10F4B0021A3F12004221DE7
:100F8000FFF737FD201DA16ABDE8104008470A4A57
:100F900091420CD1074B00212C33A3F12004221DD8
:100FA000FFF727FD201DA16ABDE81040084710BDCE
:100FB00000640040080B00200068004070470000FB
:100FC00010B5104A016891420BD10F4B0121A3F1DA
:100FD0002004221DFFF70DFD201DA16ABDE8104071
:100FE00008470A4A91420CD1074B01212C33A3F147
:100FF0002004221DFFF7FDFC201DA16ABDE8104062
:10100000084710BD00640040080B00200068004045
:10101000704770B5044694F82000012805D0606A36
:1010200040F400206062012070BD022084F820009E
:101030002068016821F00101016000F011FB054604
:101040000DE000F00DFB401B0A2808D9606A40F44F
:1010500000306062052084F82000012070BD206807
:101060004068C007EDD1606270BD7047704770473F
:1010700070477047704770472DE9F0410446A76DEF
:1010800000F0EEFA054694F835000026022806D056
:101090008020606584F834600120BDE8F08120681C
:1010A000016821F0160101602068416921F080018A
:1010B0004161206C08B9A06C20B12068016821F062
:1010C000080101602068016821F0010101600BE066
:1010D00000F0C6FA401B052806D9202034342062CF
:1010E000032060702670D8E720680068C007EFD141
:1010F00034343F2094F828108840B8600120607094
:1011000026700020C9E790F83510022903D080210D
:10111000416501207047052180F83510006801689D
:1011200021F0010101600020704700002DE9F84323
:1011300004464FF00009CDF800906F484FF4165167
:101140000068B0FBF1F7A56D2E6894F85C000822EA
:1011500002FA00F1314210D02068016849070CD52D
:10116000016821F00401016094F85C0002FA00F1CA
:10117000A960606D40F00100606594F85C104FF06C
:10118000010808FA01F0304208D0216849690906CF
:1011900004D5A860606D40F00200606594F85C10B2
:1011A00004208840304208D021680968890704D5A6
:1011B000A860606D40F00400606594F85C10102039
:1011C0008840304220D02168096809071CD5A860F2
:1011D0002068016849030CD50068000304D4216C21
:1011E00091B1204688470FE0A16C69B1204688473D
:1011F0000AE00168C90503D4016821F00801016013
:10120000216C09B12046884794F85C102020884062
:1012100030424CD021680968C90648D5A86094F8C6
:10122000350005280BD020680168490330D50068D7
:10123000000328D4616C51B32046884737E020680A
:10124000016821F0160101602068416921F08001E8
:101250004161206C08B9A06C20B12068016821F0C0
:101260000801016094F85C103F208840A86084F871
:10127000358084F83490216D00293BD001B02046A0
:10128000BDE8F0430847E16B09B1204688470EE00E
:101290000168C90507D4016821F01001016084F8D4
:1012A000358084F83490E16B09B120468847606D41
:1012B00000281FD0606DC00714D0052084F83500C9
:1012C0002068016821F0010101600098401C009035
:1012D000B84203D820680068C007F6D184F835808A
:1012E00084F83490E16C002904D001B02046BDE8B8
:1012F000F0430847BDE8F883140000202DE9F041D1
:10130000044600F0ADF905465CB1022084F83500D2
:10131000002684F834602068016821F00101016032
:101320000DE00120BDE8F08100F09AF9401B05288E
:1013300005D920206065032084F83500F2E7206895
:101340000068C007F0D121680A6820480240D4E94B
:1013500001031843D4E903352B4318436369184349
:10136000A3691843E3691843236A18431043626A68
:10137000042A03D1D4E90B231A43104308602068E0
:10138000406920F00700656A2946054301270429C2
:101390000DD1A06A0543E06A48B1204606F0CBFEB5
:1013A00028B14020606584F835700120BAE72068D4
:1013B0004561204606F0FCFE94F85C203F219140F8
:1013C0008160666584F835700020ABE73F8010F0DF
:1013D0002DE9F04104460025A66D94F8340001285B
:1013E0000DD0012084F8340094F835700020012FCE
:1013F00007D084F8340002252846BDE8F081022099
:10140000FBE7022784F835706065204606F07EFE13
:1014100094F85C103F208840B0602068016841F07B
:1014200016010160206C20B12068016841F00801BC
:1014300001602068016841F001010160DCE7000003
:1014400070B5044600F00CF90546601C02D0044853
:101450000078044400F004F9401BA042FAD370BDA8
:10146000080000207047000010B504490A680242D5
:1014700002D00860FFF7F6FF10BD0000143C0140E9
:101480002DE9F84F0022DFF89C914FF0010809F197
:10149000040A03274FF00F0C0AF1040B08FA02F5B7
:1014A0000B682B40AB426ED10C7904F00304012C85
:1014B00001D0022C15D18668540007FA04FE26EAF2
:1014C0000E06D1F80CE00EFA04FE4EEA060EC0F845
:1014D00008E04468AC430D79C5F3001595402543F9
:1014E00045600C79E443A40708D0C568540007FAA6
:1014F00004F6B5438E68A6402E43C6600C7904F00E
:101500000304022C11D1D40800EB8406356A540779
:10151000E40E0CFA04FE25EA0E05D1F810E00EFAEE
:1015200004FE4EEA050EC6F820E00568540007FAEE
:1015300004F6B5430E7906F00306A6402E43066076
:101540004C6814F4403F67D0374C256845F480451B
:101550002560246804F480440094344C22F0030590
:101560002E19D6F8085894074FEA147E0CFA0EF498
:10157000A5432F4CA04201D1002424E02D4CA042D1
:1015800002D101241FE047E02B4CA04201D10224EC
:1015900019E02A4CA04201D1032414E0284CA042B7
:1015A00001D104240FE0274CA04201D105240AE018
:1015B000254CA04201D1062405E0244CA04201D1D3
:1015C000072400E0082404FA0EF42C43C6F8084867
:1015D000D9F800409C434D68ED0300D51C43C9F881
:1015E0000040DAF800409C434D68AD0300D51C4331
:1015F000CAF80040DBF800409C434D68ED0200D57E
:101600001C43CBF80040074D0C352C689C434E68BA
:10161000B60200D51C432C60521C102AFFF43EAFCA
:10162000BDE8F88F003C01404438024000300140E2
:10163000000002400004024000080240000C02408A
:10164000001002400014024000180240001C02403A
:10165000002A01D081617047090481617047000050
:1016600001488068704700000800002070B50446FB
:10167000002C04D094F83D00002510B106E00120B4
:1016800070BD84F83C50204600F0BCF8242084F85B
:101690003D002068016821F00101016020680168B7
:1016A00041F4004101602068016821F400410160BB
:1016B00000F0DEFE4F4B6168994203D84E498842E4
:1016C00003D304E04D49884201D2012070BD4C494A
:1016D000B0FBF1F12268566826F03F060E435660D3
:1016E00062689A4201D8491C07E04FF49672514350
:1016F0004FF47A72B1FBF2F1491C2268166A26F0A7
:101700003F06314311626168994210D84900401E7A
:10171000B0FBF1F2521CC2F30B02042A01D20420E6
:1017200022E0B0FBF1F0401CC0F30B001CE0A2680B
:10173000F2B301EBC10303EB0116431EB3FBF6F357
:101740005B1C43F480431B0549D092B301EBC102FB
:1017500002EB0111401EB0FBF1F0401CC0F30B0086
:1017600040F4804040F400402168CA694CF6FF73A1
:101770009A431043C861D4E9071001432068026806
:1017800022F0C00211430160D4E903010143206843
:10179000826848F2FF339A4311438160D4E905100F
:1017A00001432068C26822F0FF021143C16001E0DA
:1017B0000EE016E02068016841F001010160256437
:1017C000202084F83D00256384F83E50002070BD41
:1017D00001EB4106431EB3FBF6F35B1CB3E70120AC
:1017E000C2E701EB4101401EB0FBF1F0401CC0F329
:1017F0000B00B7E7A086010080841E0000093D00B1
:1018000040420F002DE9F04387B00546142102A89D
:10181000FEF75CFE3849286888426AD100263748BE
:10182000016841F004010160016801F004010191C7
:10183000016841F001010160006800F001000190C1
:101840004FF4007002904FF01208CDF80C804FF06A
:101850000109CDF81090032405940427069702A9E6
:101860002748FFF70DFEB8010290CDF80C80CDF8A7
:1018700010900594069702A92248FFF701FE1F4821
:101880001030016841F400010160006800F40000BC
:1018900001901E4C1C4820604FF0C068C4F80480C2
:1018A000A660E660071527616661A661E6612662AB
:1018B00066622046FFF722FD08B1FEF784FFAC63A5
:1018C000A5631148114C303060342060C4F80480A6
:1018D0004020A060E66027616661A661E66126623D
:1018E00066622046FFF70AFD08B1FEF76CFF6C63E5
:1018F000A56307B0BDE8F083005C004030380240CB
:10190000000802400000024040600240E003002066
:101910000248816802781144816070470800002005
:1019200010B50B48016841F400710160016841F491
:1019300080610160016841F480710160032000F062
:1019400071F80F2000F006F800F026F8002010BD16
:10195000003C024070B504460D4D4FF47A71287872
:10196000B1FBF0F00B490968B1FBF0F001F0AAF807
:1019700008B1012070BD102C07D200222146501E54
:1019800000F030F86C60002070BD012070BD0000D8
:10199000080000201400002008B50A48016841F43E
:1019A00080410160006800F4804000900548001FFD
:1019B000016841F080510160006800F080500090A3
:1019C00008BD000044380240002809DB00F01F0277
:1019D000012191404009800000F1E020C0F8001191
:1019E00070470000F0B40D460D4B1B68C3F3022393
:1019F000C3F10704042C00D90424191D072901D2BE
:101A0000002300E0DB1E012606FA04F1491E2940EE
:101A100099409E40761E16403143F0BC06F0BCBF94
:101A20000CED00E000F00701054A10684FF6FF03D7
:101A3000184040EA01200349084310607047000045
:101A40000CED00E00000FA057047006841620020DC
:101A5000704770B50368586A002907D09C6A00EB8C
:101A6000144400204FF48275491E0AE040EA024007
:101A700098620DE005EB80069E5904EB1644401C6D
:101A8000C0B28842F6D305EB810144EA02405850C7
:101A9000002070BDD0F8040402F04ABFC1EBC102BF
:101AA00000EB8202D0F80404926C02F0ACBEC1EBF1
:101AB000C10200EB8202D0F80404D2F8082202F03E
:101AC00000BFD0F8040402F035BF70B504460B0621
:101AD00001F00F00C0EBC00104EB81014FF00102E7
:101AE0004FF0000502D53C314A7002E001F5FE716D
:101AF0004D70087094F8BC03012808D084F8BC230A
:101B0000206803F073FA84F8BC53002070BD0220F3
:101B100070BD70B5044601F00F006268904201D9B3
:101B2000012070BD0B0601F00F01C1EBC10104EBF8
:101B300081014FF001024FF0000502D53C314A709F
:101B400002E001F5FE714D708D70087094F8BC03D1
:101B5000012808D084F8BC23206803F039FC84F8FD
:101B6000BC53002070BD022070BD01F00F01C1EB1D
:101B7000C10100EB8100D0F8140270472DE9F0415B
:101B800004460F0601F00F00C0EBC00104EB810119
:101B90004FF001064FF0000502D53C314E7002E0D7
:101BA00001F5FE714D7008708A60CB704A7802B101
:101BB000C880022B00D10D7194F8BC03012809D014
:101BC00084F8BC63206803F081F9284684F8BC538C
:101BD000BDE8F0810220FBE770B50D4605F00F046B
:101BE000C4EBC40100EB810101F5FE71CA604B61D9
:101BF00000238B614B700C700369012B00D10A61CB
:101C00002A0705D0027C006803F03AFC002070BD72
:101C1000027C006803F028FBF8E770B504460D4627
:101C2000616805F00F00884201D9012070BD2906C6
:101C30004FF000064FF0010206D5C0EBC00104EBE7
:101C400081013C314A7006E0C5EBC50104EB81011E
:101C500001F5FE714E708A70087094F8BC0301287B
:101C600007D084F8BC23206803F0DEFB280702D0ED
:101C700007E0022070BD217C04F57172206803F03A
:101C80007DFB84F8BC63002070BD70B50D4605F087
:101C90000F04C4EBC40100EB81013C31CA604B610D
:101CA00000238B6101234B700C700369012B00D161
:101CB0000A612A0705D0027C006803F0E1FB0020DE
:101CC00070BD027C006803F0CFFAF8E72DE9F84F09
:101CD00004462568284603F00DFD00287ED12068C3
:101CE00003F034FD002879D0206803F02FFD800731
:101CF00004D52068416901F002014161206803F0C8
:101D000025FDC10604F57170009035D52068816904
:101D100021F0100181612F6A07F00F00C0EBC000B5
:101D200004EB800606F5FE76C7F34340022802D096
:101D3000062812D01BE047F6F070074217D0C7F311
:101D40000A1217462846F16803F004FDF06838448B
:101D5000F060B0693844B06109E008222846009973
:101D600003F0F8FCB069C7F30A110844B0612068B9
:101D7000816941F010018161206803F0E7FC0003F4
:101D80004FF001084FF008094FF0100A3ED5002629
:101D9000206803F0BAFC834635E05FEACB702FD0B1
:101DA000F1B2206803F0CAFC0746F80707D005EB3C
:101DB0004610C0F8088B3146204606F081FA3807F5
:101DC00007D505EB4610C0F8089B3146204606F0C3
:101DD00053FAF80605D505EB461000E06AE1C0F8B5
:101DE00008ABB80604D505EB46112020C1F8080B56
:101DF000B80405D505EB46114FF40050C1F8080BA7
:101E0000761C4FEA5B0BBBF1000FC6D1206803F0D4
:101E10009DFC400359D5206803F070FC83460026E2
:101E200050E05FEACB704AD0F1B2206803F074FC56
:101E30000746F80723D006F00F0108FA01F0D5F89D
:101E400034188143C5F8341805EB4610C0F80889EA
:101E5000206901280FD1C6EBC60004EB8000D0E951
:101E600011211144816436B9206D20B92068012107
:101E7000009A03F083FAF1B22046FFF70FFE38070D
:101E800003D505EB4610C0F80899F80603D505EB15
:101E90004610C0F808A9780604D505EB4611402085
:101EA000C1F80809B80704D505EB46110220C1F8AE
:101EB0000809380603D53146204606F08FF9761C0E
:101EC0004FEA5B0BBBF1000FABD1206803F03EFC87
:101ED000002811DAD5F8040820F00100C5F804083C
:101EE00094F8F403012829D0204600F0B8F92068BE
:101EF000416901F000414161206803F027FC0005C1
:101F00000BD5D5F80808C00702D0204600F0ECF940
:101F10002068416901F400614161206803F016FC0A
:101F2000C00466D5D5F8040820F00100C5F80408FF
:101F30001021206803F0B8FB002125E0002084F880
:101F4000F40300212046FFF77FFDD0E705EB4110A9
:101F500000F510604FF67F328260036823F40013AF
:101F60000360036843F000630360C0F80822D0F800
:101F7000002222F40012C0F80022D0F8002242F021
:101F80000062C0F80022491C60688842DED8D5F89B
:101F90001C0840F00110C5F81C08206B60B1D5F892
:101FA000840840F00B00C5F88408D5F8440840F0D8
:101FB0000B00C5F844080CE0D5F8140842F22B01D8
:101FC0000843C5F81408D5F8100840F00B00C5F810
:101FD0001008D5F8000820F4FE60C5F80008217C40
:101FE0002068009A03F0CAF92068416901F4805121
:101FF0004161206803F0AAFB800415D5206802F037
:10200000A7FF206803F066FBE06000F02BFA0146B2
:10201000227B206803F004FC204600F009F92068C8
:10202000416901F400514161206803F08FFB000712
:1020300007D5204600F017F92068416901F0080132
:102040004161206803F082FBC00208D500212046D0
:1020500000F032F82068416901F480114161206884
:1020600003F074FB800208D50021204600F028F818
:102070002068416901F400114161206803F066FBAA
:10208000400007D52046FFF705FD2068416901F0B3
:1020900080414161206803F059FB40070AD5206860
:1020A0004568680702D52046FFF70BFD20684168A8
:1020B00029434160BDE8F88FD0F8040402F08CBCDD
:1020C000D0F8040402F099BC2DE9F0418AB004462E
:1020D000002C05D0266894F8BD03002520B108E047
:1020E00001200AB0BDE8F08184F8BC53204600F01E
:1020F0005DF8032084F8BD03F06BC00500D42561B2
:10210000206803F0ABF804F11001282288466846E5
:10211000FEF788F994E80F0002F028FF022718B1B3
:1021200084F8BD730120DCE70021206803F031FB57
:10213000002101260DE0C1EBC10004EB80003C3022
:1021400046700170C180C5708560C5604561491CDD
:10215000C9B260688842EED800210DE0C1EBC10031
:1021600004EB800000F5FE7045700170C57085605D
:10217000C5604561491CC9B260688842EED8282212
:1021800041466846FEF74EF994E80F0002F0AEFFB4
:1021900018B184F8BD730120A3E784F8385084F89F
:1021A000BD63206802F094FF00209AE710B586B066
:1021B0000446142101A8FEF789F92068B0F1A04F68
:1021C0002FD100211848026842F001020260006825
:1021D00000F0010000904FF4C050019002200290E6
:1021E0000391032004900A20059001A90F48FFF7EE
:1021F00047F90D48001D016841F0800101600A485F
:102200001430016841F480410160006800F48040AE
:102210000090002211464320FFF7E4FB4320FFF724
:10222000D3FB06B010BD0000303802400000024071
:1022300070B504460125E06800280ED0022801D0C0
:10224000FEF7C1FA2946D4F8040402F045FCD4F89C
:102250000404BDE8704002F0F6BB0025F2E7D0F8B8
:10226000040402F01EBCD0F8040402F024BC10B533
:10227000044694F8BC0301280BD0012084F8BC0369
:1022800084F83810206803F0B4FA002084F8BC0306
:1022900010BD022010BDD0F8042400F57171104665
:1022A00002F026BC10B50446206894F8BC1301293E
:1022B00006D0012184F8BC13A16A012902D008E0EC
:1022C000022010BDA169012903D0816B41F4803146
:1022D0008163206803F0CEF9206802F0EBFE002055
:1022E00084F8BC0310BD000010B50446D4F8040403
:1022F00002F040FC2068D0F8001E41F00101C0F857
:10230000001E206A002804D00248016841F006013E
:10231000016010BD10ED00E02DE9F04704460D46C8
:10232000002C13D0DFF82891D9F80000EFB200F0AC
:102330000700A8420CD289F80070D9F8000000F01C
:102340000700A84204D00120BDE8F0870120FBE788
:102350002068404E810712D5400703D5306840F40D
:10236000E05030602078000703D5306840F46040CA
:1023700030603068A16820F0F000084330602078B9
:10238000C00731D0334960680839012808D00228D5
:102390000BD0032809D0096889070BD40120D3E7A3
:1023A0000968890306D40120CEE70968890101D4B0
:1023B0000120C9E7316821F0030101433160FFF7D3
:1023C0004FF9804641F2883A07E0FFF749F9A0EB60
:1023D0000800504501D90320B6E73068616800F075
:1023E0000C00B0EB810FF0D1D9F8000000F007002D
:1023F000A84209D989F80070D9F8000000F0070058
:10240000A84201D001209FE72078400705D5306819
:10241000E16820F4E050084330602078000706D5DA
:102420003068216920F4604040EAC100306000F06B
:102430003FF83168084AC1F30311515CC8400749AD
:10244000086007480068FFF785FA00207CE7000075
:10245000003C024008380240B4A5000814000020E7
:102460000C000020014800687047000014000020A4
:1024700000B5FFF7F7FF04490968044AC1F3822158
:10248000515CC84000BD000008380240C4A50008E7
:1024900000B5FFF7E7FF04490968044AC1F3423178
:1024A000515CC84000BD000008380240C4A50008C7
:1024B00010B51748006810F00C01164816D0164BDE
:1024C000042912D0082911D1114C241F216801F0D0
:1024D0003F02216849020AD52068C0F38810A0FB9A
:1024E00003010023FDF7E2FE09E0184610BD216854
:1024F0000023C1F38811A1FB0001FDF7D7FE21687D
:10250000C1F30141491C4900B0FBF1F010BD0000CE
:10251000083802400024F400001BB7002DE9F84FF2
:102520000446002C13D02078DFF8A083C007A8F160
:10253000040556D008F104000168C1F381010129A6
:102540000CD00068C0F38100022803D00DE0012008
:10255000BDE8F88FD8F80000400206D5286880034F
:102560003FD5606870BB0120F2E76068B0F5803F3E
:1025700010D0B0F5A02F12D0286820F48030286049
:10258000286820F4802028606068E0B1FFF768F8D0
:10259000064614E0286840F480302860F4E7286894
:1025A00040F480202860286840F480302860EBE701
:1025B000FFF756F8801B642801D90320C8E7286874
:1025C0008003F5D50DE0FFF74BF8064606E0FFF770
:1025D00047F8801B642801D90320B9E728688003E5
:1025E000F5D42078BA4F80074FF0000948D5B74896
:1025F000001D016811F00C0F08D00068C0F38100C5
:10260000022813D1D8F8000040020FD428688007B0
:1026100004D5E068012801D0012099E728682169E4
:1026200020F0F80040EAC100286029E0E068B8B175
:1026300001203860FFF714F8064606E0FFF710F8AF
:10264000801B022801D9032082E728688007F5D57E
:102650002868216920F0F80040EAC10028600FE0F6
:10266000C7F80090FEF7FCFF064606E0FEF7F8FF0D
:10267000801B022801D903206AE728688007F5D467
:102680002078000729D5DFF844A2924861690AF151
:10269000700A89B101210160FEF7E2FF064606E0FB
:1026A000FEF7DEFF801B022801D9032050E7DAF88D
:1026B00000008007F4D510E0C0F80090FEF7D0FFCE
:1026C000064606E0FEF7CCFF801B022801D9032056
:1026D0003EE7DAF800008007F4D42078400778D588
:1026E0004FF0000A79483C300068C0000BD47748AE
:1026F0003C30016841F080510160006800F080507A
:1027000000904FF0010ADFF8D0B1DBF80000C005FF
:1027100014D4DBF8000040F48070CBF80000FEF722
:102720009FFF064606E0FEF79BFF801B022801D9AB
:1027300003200DE7DBF80000C005F4D5634EA06868
:102740006C3601280FD0052812D0306820F0010027
:102750003060306820F004003060A068F8B1FEF707
:102760007FFF834617E0306840F001003060F4E7F7
:10277000306840F004003060306840F001003060A4
:10278000EBE7FEF76DFFA0EB0B0141F288308142D1
:1027900001D90320DCE630688007F2D510E0FEF7AF
:1027A0005FFF834609E0FEF75BFFA0EB0B0141F200
:1027B0008830814201D90320CAE630688007F2D40C
:1027C000BAF1010F05D141483C30016821F0805138
:1027D0000160A069C0B33D49091D09684FF0FF368B
:1027E000C1F38101022946D0022805D0C7F86090C4
:1027F000FEF736FF04463AE0C7F86090FEF730FF78
:10280000814607E0FEF72CFFA0EB0900022801D962
:1028100003209DE628688001F4D4D4E90701084329
:10282000616AA26A890106EB520241EA0241084349
:1028300094F82C1040EA0160C8F8000001203866C6
:10284000FEF70EFF044607E03DE0FEF709FF001B20
:10285000022801D903207BE628688001F5D532E003
:10286000FEF7FEFE001B022801D9032070E628684F
:102870008001F5D427E0012823D0D8F80000E269D0
:1028800000F4800191421AD1226A00F03F01914286
:1028900015D147F6C071626A0140B1EB821F0ED1BB
:1028A000A26A00F4403106EB5202B1EB024F06D1AE
:1028B00094F82C1000F07060B0EB016F03D0012091
:1028C00046E6012044E6002042E6000004380240CB
:1028D00000004742800E47420070004070B5044639
:1028E000002C09D0606A002540B125616561A562B0
:1028F00094F8510040B10CE0012070BD6068B0F563
:10290000827FF4D0E561F2E784F85050204600F071
:1029100045F8022084F851002068016821F0400148
:102920000160A088218900F4827001F40441084309
:10293000A18901F400610843217C01F002010843F0
:10294000217D01F001010843218B01F4007108434E
:10295000217F01F03801084394F8201001F0800134
:102960000843218D01F40051084321680860A069E3
:10297000042101EA104094F8241001F010010843EA
:10298000216848602068C16921F40061C161656502
:10299000012084F85100002070BD00002DE9F047AF
:1029A00086B00546142101A8FDF790FD3F4928682F
:1029B000884278D100263E48016841F48051016088
:1029C000006800F48050009039481438016841F0E4
:1029D00002010160016801F002010091016841F00B
:1029E00001010160006800F00100009018200190D2
:1029F0004FF00208CDF808804FF00109CDF80C9097
:102A0000032704970524059401A92A48FEF738FDF9
:102A100080200190CDF80880CDF80C9004970594A3
:102A200001A92548FEF72CFD254C244820604FF0D5
:102A3000C068C4F80480A660E6604FF48069C4F8FA
:102A400010906661A661E661380420624FF0040AC6
:102A5000C4F824A0A762E66226632046FEF74EFC77
:102A600008B1FDF7B0FEEC64A5631448144C1830AF
:102A700060342060C4F804804020A060E660C4F8A0
:102A800010906661A661E661C0022062C4F824A0CD
:102A9000A762E66226632046FEF730FC08B1FDF728
:102AA00092FEAC64A56306B0BDE8F087003001403B
:102AB00044380240000402400000024040640240EA
:102AC000F804002010B5401EB0F1807F01D3012032
:102AD00010BD4FF0E02460610F21601705F05CFF2E
:102AE0000020A06107202061002010BD70477047C2
:102AF00010B590F83C20012A22D0012280F83C2019
:102B0000CA6800238C6822F4407222434C6822F485
:102B1000806222430C6822F4006222430C6922F492
:102B2000805222434C6922F400522243C96922F4A4
:102B300080420A4301684A6480F83C30002010BD9E
:102B4000022010BD70B590F83C20012A31D001263A
:102B500080F83C60022280F83D2002685468936847
:102B600024F070050C682C435460134C0268A24298
:102B700014D0B2F1804F11D0104CA2420ED0104CA4
:102B8000A2420BD00F4CA24208D00F4CA24205D05B
:102B90000E4CA24202D00E4CA24204D123F080037C
:102BA0004968194391603C30467000210170002053
:102BB00070BD022070BD0000000001400004004014
:102BC00000080040000C00400004014000400140AB
:102BD0000018004010B50446002C03D094F83D00C6
:102BE00010B107E0012010BD002084F83C00204611
:102BF00000F016F8022084F83D00211D206801F045
:102C000083FA01203D3460726070A070E070207122
:102C10006071A071E07120722070002010BD000072
:102C200008B500682849294A884208D1106840F050
:102C300001001060106800F00100009008BD2349F9
:102C4000234B091F984208D1086840F00200086031
:102C5000086800F00200009008BD1E4B984211D198
:102C6000086840F004000860086800F00400009064
:102C7000002201211E20FEF7B5FEBDE808401E20FF
:102C8000FEF7A2BE144B984211D1086840F008002C
:102C90000860086800F0080000900022012132203E
:102CA000FEF7A0FEBDE808403220FEF78DBE0B49BE
:102CB0008842D1D1106840F400301060106800F4F0
:102CC0000030009008BD0000000001404438024080
:102CD0000004004000080040000C00400044014097
:102CE00090F83D10012901D001207047022180F8A1
:102CF0003D100168CA6842F00102CA6000681449C8
:102D0000884214D0B0F1804F11D0124988420ED0C1
:102D1000114988420BD01149884208D01049884295
:102D200005D01049884202D00F49884209D18168F4
:102D300001F00701062908D0016841F00101016096
:102D400003E0016841F001010160002070470000CC
:102D5000000001400004004000080040000C00405A
:102D600000040140004001400018004070B50446D6
:102D7000002594F83C00012817D0012684F83C6017
:102D8000022084F83D002068826822F0770222F455
:102D90007F4282600868502838D00DDC202853D04C
:102DA00005DC90B3102811D14EE0022070BD302810
:102DB0004AD040280AD13DE0602831D070280CD09C
:102DC000B0F5805F03D0B0F5005F12D001253C3430
:102DD000667000202070284670BDCB68D1E90121C3
:102DE000206801F0F7F92068816841F0770181607F
:102DF000EDE7CB68D1E90121206801F0EBF920680B
:102E0000816841F480418160E1E71DE0CA6849685A
:102E1000206805F065FB5021206805F059FBD6E7D6
:102E2000CA684968206805F06CFB6021206805F0DD
:102E30004FFBCCE7CA684968206805F051FB402188
:102E4000206805F045FBC2E722680146104605F000
:102E50003FFBBCE7704770B50446206801694FF03E
:102E60000005C943890716D4C168C943890712D42C
:102E7000E91E01610120207720688069800703D066
:102E80002046FFF7E7FF05E0204600F0DFF8204688
:102E900000F06FF9257720680169C943490718D404
:102EA000C168C943490714D46FF0040101610220CD
:102EB00020772068806910F4407F03D02046FFF718
:102EC000C9FF05E0204600F0C1F8204600F051F9A6
:102ED000257720680169C943090717D4C168C94328
:102EE000090713D46FF008010161042020772068DE
:102EF000C069800703D02046FFF7ACFF05E02046FD
:102F000000F0A4F8204600F034F925772068016924
:102F1000C943C90618D4C168C943C90614D46FF09F
:102F200010010161082020772068C06910F4407FFB
:102F300003D02046FFF78EFF05E0204600F086F81C
:102F4000204600F016F9257720680169C943C907B2
:102F500008D1C168C943C90704D1891E016120464F
:102F600000F008F920680169C943090609D4C1685D
:102F7000C943090605D46FF0800101612046FFF7BF
:102F8000B5FD20680169C943490609D4C168C94330
:102F9000490605D46FF040010161204600F06AF94E
:102FA00020680169C94389060BD4C168C9438906F1
:102FB00007D46FF0200101612046BDE87040FFF7A3
:102FC00096BD70BD30B587B00446142102A8FDF748
:102FD0007DFA194D20680023184902220124A842D5
:102FE00013D1086840F010000860086800F0100075
:102FF000019010030290039204930593069402A992
:103000000F48FEF73DFA07B030BD0E4B9842FAD19B
:10301000086840F020000860086800F02000019077
:10302000402002900392049405920320069002A986
:103030000548FEF725FAE6E7000001403038024077
:10304000001002400044014000140240704770B577
:1030500004460D46002694F83C0001280FD00120BC
:1030600084F83C006AB1042A1FD0082A32D00C2A06
:1030700044D00126002084F83C00304670BD022078
:1030800070BD2946206805F08DF92068816941F0FE
:10309000080181612068816921F004018161206853
:1030A00081692A6911438161E4E72946206801F0BA
:1030B0009BF82068816941F4006181612068816921
:1030C00021F480618161206881692A6941EA0221D5
:1030D0008161CFE72946206805F098F92068C16929
:1030E00041F00801C1612068C16921F00401C1619A
:1030F0002068C1692A691143C161BBE7294620687C
:1031000005F0BCF92068C16941F40061C161206823
:10311000C16921F48061C1612068C1692A6941EAFD
:103120000221C161A6E710B50446002C03D094F833
:103130003D0010B107E0012010BD002084F83C00E4
:10314000204600F015F8022084F83D00211D20687B
:1031500000F0DAFF01203D3460726070A070E07012
:1031600020716071A071E07120722070002010BD8C
:103170007047704700683149884202D13048406842
:103180000047B0F1804F06D02E49884207D12C4825
:103190001030406800472A480830406800472A49F4
:1031A000884203D1264818304068004727498842A2
:1031B00003D123482030406800472549884203D185
:1031C0001F482830406800472249884203D11C48E4
:1031D0003030406800472049884203D118483830D1
:1031E000406800471D49884203D115484030406877
:1031F00000471B49884203D11148483040680047C6
:103200001849884203D10E4850304068004716499B
:10321000884203D10A485830406800471349884221
:1032200003D107486030406800471149884203D104
:1032300003486830406800477047000000000140C4
:10324000200100200004004000080040000C004065
:103250000010004000140040000401400040014004
:10326000004401400048014000180040001C00409C
:1032700000200040704738B5044694F83E002028EE
:1032800001D0022038BD71B16AB194F83C00012828
:103290000BD0012084F83C002063204600F0DEFFC4
:1032A000014621B107E0012038BD022038BD206B66
:1032B000012802D00121084638BD20680268406814
:1032C000009020680C3050E8002F42F0100240E8D7
:1032D0000023002BF5D1EEE770B50546334A286888
:1032E00090420DD1324CA180A4F18000A268064624
:1032F0009047228831462846BDE87040FFF7BBBFA3
:103300002C4A90420DD12C4CA180A4F18000A268DF
:1033100006469047228831462846BDE87040FFF7B0
:10332000AABF264A90420DD1254CA180A4F180006D
:10333000A26806469047228831462846BDE870407C
:10334000FFF799BF1F4A90420DD11F4CA180A4F1F5
:103350008000A26806469047228831462846BDE88C
:103360007040FFF788BF194A90420DD1184CA180D8
:10337000A4F18000A268064690472288314628467C
:10338000BDE87040FFF777BF124A90420DD1124C52
:10339000A180A4F18000A2680646904722883146A9
:1033A0002846BDE87040FFF766BF70BD00100140C1
:1033B000440C002000440040540D00200048004010
:1033C000640E0020004C0040740F002000500040AC
:1033D0008410002000140140941100207047000068
:1033E000F8B5044622681068D168536900F00F06EA
:1033F000002E08D1850606D58D0604D52046BDE8E9
:10340000F84005F03FB90025002E66D003F0010614
:1034100001F49077374360D0C20705D0CA0503D5C1
:10342000226C42F001022264420705D5DA0703D07C
:10343000226C42F002022264820705D5DA0703D02B
:10344000226C42F004022264020707D501F0200238
:10345000324303D0226C42F008022264226C002A1C
:1034600031D0800604D5880602D5204605F00AF939
:1034700020684069C0F38010216C090700D438B37C
:10348000204605F0A3F92068406940061CD5206855
:10349000143050E8001F21F0400140E80012002ADB
:1034A000F5D1A06B60B157490165A06BFDF72BFE0C
:1034B000002808D0A06B016D01B0BDE8F0400847BE
:1034C0002046FFF78BFFF8BD2046FFF787FFF8BDCA
:1034D0002046FFF783FF2564F8BD236B012B7ED1C7
:1034E000C3067CD5CB067AD5106850680090506929
:1034F0004FF02003400643D5A16B0868406880B2B6
:103500000028E9D0A28D8242E6D9E085C869B0F5ED
:10351000807F2DD020680C3050E8001F21F480718E
:1035200040E80012002AF5D12068143050E8001F4E
:1035300021F0010140E80012002AF5D12068143082
:1035400050E8001F21F0400140E80012002AF5D1A8
:1035500084F83E30256320680C3050E8001F21F0CD
:10356000100140E80012002AF5D1A06BFDF784FDA0
:10357000A08DE18D401A81B22046FFF7ADFEF8BD67
:10358000A08DE18D401A81B2E08D0028F7D000298E
:10359000F5D020680C3050E8002F22F4907240E8FB
:1035A0000026002EF5D12068143050E8002F22F0BC
:1035B000010240E80026002EF5D184F83E30256354
:1035C00020680C3050E8002F22F0100240E8002361
:1035D000002BF5D12046FFF77FFEF8BDFFE702067E
:1035E00006D50A0604D52046BDE8F84005F0ADB87A
:1035F0004006F2D54806F0D52046BDE8F84005F073
:103600005BB90000D388000870B50446002C04D0D4
:1036100094F83D00002510B106E0012070BD84F84B
:103620003C50204600F022F8242084F83D00206819
:10363000C16821F40051C160204604F099FF206860
:10364000016921F4904101612068416921F02A015A
:1036500041612068C16841F40051C16025642020A7
:1036600084F83D0084F83E00002070BD2DE9F04F45
:1036700087B00446142102A8FCF728FF8848874B2E
:103680002168874A14380225032700264FF0070BCC
:103690004FF0006A4FF004094FF48068994254D10A
:1036A000116841F010011160116801F010010191E1
:1036B000016841F002010160016801F0020101911D
:1036C000016841F001010160006800F00100019013
:1036D00080200290039504960597CDF818B002A9B2
:1036E0007048FDF7CDFE28020290039504960597D9
:1036F000CDF818B002A96C48FDF7C2FE6C4D6B48BE
:103700002860C5F804A0AE60EE60C5F810806E6158
:10371000AE61EE614FF480302862C5F82490AF624C
:10372000EE622E632846FDF7E9FD08B1FDF74BF880
:10373000A563AC63002211462520FEF753F925202E
:10374000FEF742F907B0BDE8F08F5A4B994243D1DA
:103750005349091F0A6842F480220A60096801F48B
:1037600080210191016841F004010160006800F0CE
:10377000040001904FF44060029003950496059771
:10378000CDF818B002A94C48FDF77AFE484D4B48D9
:1037900060352860C5F804A0AE60EE60C5F8108002
:1037A0006E61AE61EE614FF400302862C5F824907E
:1037B000AF62EE622E632846FDF7A0FD08B1FDF76B
:1037C00002F8A563AC63002211462720FEF70AF930
:1037D0002720FEF7F9F8B5E7394B9942B2D11168C5
:1037E00041F020011160116801F020010191016890
:1037F00041F040010160006800F0400001904FF48A
:10380000844002900395049605970820069002A92B
:103810002C48FDF735FE2548254D6038C035286019
:103820004FF0206AC5F804A0AE60EE60C5F81080C5
:103830006E61AE61EE614FF440302862C5F82490AD
:10384000AF62EE622E632846FDF758FD08B1FCF723
:10385000BAFFA563AC6315481B4D18302860C5F846
:1038600004A04020A860EE60C5F810806E61AE61D3
:10387000EE61800228626E622846FDF73FFD08B1C6
:10388000FCF7A1FF6563AC63002205214720FEF72A
:10389000A9F84720FEF798F854E70000001001400F
:1038A00044380240000402400000024088640240A4
:1038B000EC07002000480040000802402860024059
:1038C00000140140001802400C09002070477047A6
:1038D0002DE9F84304460E4615461F4694F83D0070
:1038E000202802D00220BDE8F883C6B1BDB194F80B
:1038F0003C00012815D0012084F83C004FF000095D
:10390000C4F84090212084F83D00FDF7A9FE8046D0
:10391000A584E584A068B0F5805F04D005E00120AF
:10392000E1E70220DFE7206920B13546002684F870
:103930003C9013E00025FAE7434600228021204610
:10394000009704F0EFFF08B10320CCE79DB1216898
:1039500015F8010B4860E08C401EE084E08C0028E4
:10396000EAD14346002240212046009704F0DAFFC6
:1039700040B10320B7E736F8020B2168C0F3080016
:103980004860E8E7202084F83D000020ABE7000015
:10399000F7B5044694F83D00202801D00220FEBD72
:1039A000019999B392B394F83C00012831D00120D9
:1039B00084F83C002162A284E28400252564212051
:1039C00084F83D00636B1448D863636B1348186434
:1039D000636B1348D864606B056526681346361D13
:1039E0003246606BFDF7F4FC21686FF04000086020
:1039F00084F83C502068143050E8001F41F08001EA
:103A000040E80012002AF5D10020FEBDFFE70120AA
:103A1000FBE70220F9E70000E3880008C3870008FD
:103A20002785000870477047FEE7000010B5104872
:103A30000E4901600321416000218160C1604FF4A3
:103A4000C02202614FF4A002426101760122427657
:103A50008276C17601774177FDF74CF9002803D0D3
:103A6000BDE81040FCF7AFBE10BD00000064004090
:103A70003C03002010B510480E490160032141604D
:103A800000218160C1604FF4802202614FF4E002A6
:103A900042610176012242768276C17601774177D2
:103AA000FDF728F9002803D0BDE81040FCF78BBED5
:103AB00010BD0000006800406403002008B52948DC
:103AC000016841F400110160016801F400110091E6
:103AD000016841F480010160006800F480000090FA
:103AE000002211460C20FDF77DFF0C20FDF76CFF36
:103AF000002211460D20FDF775FF0D20FDF764FF34
:103B0000002211460F20FDF76DFF0F20FDF75CFF2F
:103B1000002205213920FDF765FF3920FDF754FF0C
:103B2000002205213A20FDF75DFF3A20FDF74CFF0A
:103B3000002211463B20FDF755FF3B20FDF744FFD7
:103B4000002211464420FDF74DFF4420FDF73CFFC5
:103B5000002205214520FDF745FFBDE8084045202E
:103B6000FDF732BF303802402DE9F04186B0142114
:103B700001A8FCF7ABFC5248016841F0020101606A
:103B8000016801F002010091016841F0400101600B
:103B9000016801F040010091016841F001010160FC
:103BA000016801F001010091016841F00801016024
:103BB000016801F008010091016841F00401016011
:103BC000016801F004010091016841F08001016089
:103BD000016801F080010091016841F0200101605D
:103BE000016801F020010091016841F010010160BD
:103BF000006800F010000090324E01224021304653
:103C0000FDF726FD304F012210213846FDF720FD3B
:103C1000DFF8B880012211464046FDF719FD40202B
:103C20000190012402940394049401A93046FDF705
:103C300027FC092001904FF404150295039401A973
:103C40003046FDF71DFC10200190029403940226DB
:103C5000049601A93846FDF713FC30200190029527
:103C6000039401A91A48FDF70BFC019402940394F4
:103C7000049601A94046FDF703FC0022022106201C
:103C8000FDF7B0FE0620FDF79FFE0022012109206E
:103C9000FDF7A8FE0920FDF797FE002201210A206A
:103CA000FDF7A0FE0A20FDF78FFE0022012117205C
:103CB000FDF798FE1720FDF787FE06B0BDE8F081FE
:103CC0003038024000180240000002400004024068
:103CD0000008024010B50D480B4901600C494160D5
:103CE00000218160C1604FF48042026141618161C5
:103CF000C1610162FDF7BAFC002803D0BDE81040A5
:103D0000FCF761BD10BD0000005C00408C0300208A
:103D1000801A060010B510480E4901604FF48271F8
:103D2000416000218160C160022202610122426182
:103D3000520282613822C2610162416281620A21BB
:103D4000C162FEF7CBFD002803D0BDE81040FCF7B0
:103D50003ABD10BD00300140A004002010B588B06D
:103D60001C2101A8FCF7B2FB144813490160002490
:103D70004460846041F28731C16004618461FEF770
:103D800029FF08B1FCF71FFD0C48FFF7CCF908B17B
:103D9000FCF719FD60200190029403940594002221
:103DA00001A90648FFF753F908B1FCF70CFD0348D9
:103DB000FFF708F908B010BD00440140D806002004
:103DC00010B596B000241294139414941594109482
:103DD00011941C2109A8FCF779FB202101A8FCF70C
:103DE00075FB284826490160A7214160846041F2A3
:103DF0008731C160046144618461FEF7EBFE08B164
:103E0000FCF7E1FC4FF48050129012A91D48FEF718
:103E1000ADFF08B1FCF7D7FC1A48FFF784F908B1E9
:103E2000FCF7D1FC1094119410A91648FEF78AFEF5
:103E300008B1FCF7C8FC602009900A940B940C941C
:103E40000D940E940F94082209A90E48FFF7FFF86D
:103E500008B1FCF7B8FC019402940394049405940F
:103E60004FF400500690089401A90648FEF740FE62
:103E700008B1FCF7A8FC0348FFF7A4F816B010BD82
:103E800000000140B805002010B586B0002402945F
:103E90000394049405940094019414481249016019
:103EA00053214160846040F2E731C1600461846164
:103EB000FEF790FE08B1FCF786FC4FF480500290AC
:103EC00002A90A48FEF752FF08B1FCF77CFC0094F7
:103ED000019469460548FEF735FE002801D0FCF73D
:103EE00072FC06B010BD0000000400400006002077
:103EF00010B586B0002402940394049405940094B1
:103F0000019414481249016053214160846040F2D9
:103F1000E731C16004618461FEF75CFE08B1FCF723
:103F200052FC4FF48050029002A90A48FEF71EFF8F
:103F300008B1FCF748FC0094019469460548FEF777
:103F400001FE002801D0FCF73EFC06B010BD0000C9
:103F5000000800404806002010B586B000240294F6
:103F60000394049405940094019414481249016048
:103F700053214160846040F2E731C1600461846193
:103F8000FEF728FE08B1FCF71EFC4FF480500290AB
:103F900002A90A48FEF7EAFE08B1FCF714FC0094F7
:103FA000019469460548FEF7CDFD002801D0FCF7D5
:103FB0000AFC06B010BD0000000C00409006002076
:103FC00010B50C480A4901604FF4E131416000210D
:103FD0008160C16001610C2242618161C161FFF7B2
:103FE00013FB002803D0BDE81040FCF7ECBB10BD6C
:103FF000001001402007002010B50E480C49016058
:104000000D4941604FF4805181600021C1604FF43F
:1040100080620261042242618161C161FFF7F4FAAA
:10402000002803D0BDE81040FCF7CDBB10BD000058
:104030000048004064070020A086010010B50C482D
:104040000A4901604FF4E131416000218160C160A3
:1040500001610C2242618161C161FFF7D5FA00283C
:1040600003D0BDE81040FCF7AEBB10BD001401400A
:10407000A807002010B500220F49104800F09DFB52
:1040800008B1FCF7A0FB0E490C4800F09DFD08B1FB
:10409000FCF799FB0B49094800F054FA08B1FCF70A
:1040A00092FB064800F0AEFD002803D0BDE81040AA
:1040B000FCF789BB10BD0000B40100205C1B002090
:1040C000F802002004020020FEE7FEE70148FDF7A9
:1040D000FDBD00005832002070477047FDF718BC46
:1040E0000248016841F470010160704788ED00E00A
:1040F0000148FEF7B0BE0000480600200148FEF768
:10410000AABE0000900600202DE9F0410268264D6D
:10411000264E274FDFF89CC0274B4FF08048A8421F
:1041200009D0404507D0B04205D0B84203D0604521
:1041300001D0984203D122F070044A682243A84279
:104140001BD0404519D0B04217D0B84215D06045B9
:1041500013D0984211D0194CA0420ED0184CA04256
:104160000BD0184CA04208D0174CA04205D0174CD9
:10417000A04202D0164CA04203D122F44074CA6877
:1041800022434C6922F08002224302608A68C262A4
:104190000A688262A84201D0984201D1096901638C
:1041A00001214161BDE8F0810000014000040040B0
:1041B00000080040000C00400004014000400140A5
:1041C000004401400048014000180040001C00402D
:1041D0000020004010B5846824F47F4442EA0322A2
:1041E0000A432243826010BDF0B5026A22F0100239
:1041F0000262036A4268846924F4E04424F440744F
:104200000D6844EA052423F020038D6843EA051372
:10421000104D114EA84201D0B04206D123F08003C8
:10422000CF6843EA071323F04003A84201D0B0420D
:1042300009D122F4806222F400624D6942EA8502CB
:104240008D6942EA85024260846149688163036244
:10425000F0BD0000000001400004014037B582B00D
:1042600004461346039AA262A385002525642220F2
:1042700084F83E00A16B1B48C863A16B1A48086410
:10428000A16B1A48C864A06B05652168A06B091D65
:10429000FDF79EF8206801684068019084F83C5062
:1042A00020680C3050E8001F41F4807140E8001293
:1042B000002AF5D12068143050E8001F41F00101B8
:1042C00040E80012002AF5D12068143050E8001FA1
:1042D00041F0400140E80012002AF5D105B000206D
:1042E00030BD000037880008A9870008278500082E
:1042F0000148FFF775B80000200700200148FFF7CC
:104300006FB80000640700200148FFF769B800009B
:10431000A80700202DE9F0410C46D0F8C452D0F88F
:10432000BC1200291FD004EB840200EB820200269D
:1043300093694BB1C4EBC40705EB87056D6CB3FB08
:10434000F5F705FB173383B1C1F81462D0F8C0024A
:1043500003692BB1D1F80802224601F50471984790
:104360000020BDE8F0810320FBE7966100231A4698
:10437000214600F007FCF3E770B50546D5F8BC42CE
:10438000002C0ED0284600F0E2FAC4F80C02D5F852
:10439000C012D4F80402CA6804F5037190470020E3
:1043A00070BD032070BD70B504468121204600F029
:1043B00021FA002525870121204600F01BFAA4F8E8
:1043C00078518221204600F015FAA4F84C50A4F848
:1043D0004E50D4F8BC0240B104F52F7460684068B8
:1043E0008047206800F06CFD2560002070BD10B58E
:1043F000D0F8BC42002C10D0D0F8C01259B194F8BB
:104400000002FF2807D08B6894F8012221469847C4
:10441000FF2084F80002002010BD032010BD000022
:104420000A210180004870472002002043210180BA
:104430000048704770020020432101800048704707
:104440002C0200204321018000487047B402002064
:104450002DE9F04704464FF4077000F033FD0546A0
:104460004FF00008ADB3C4F8BC52207C4FF01009E7
:104470004FF40077012668B34023022281212046B1
:1044800000F0CCFA2687402302220121204600F0CA
:10449000C5FAA4F87861A4F84E900823032282217B
:1044A000204600F0BBFAA4F84C60D4F8C0020068C3
:1044B0008047C5F81482C5F81882207C08B34023D1
:1044C00001212046D5F8042200F0B4FA0020BDE80E
:1044D000F08700E003E0C4F8BC820220F7E73B4627
:1044E00002228121204600F099FA26873B460222CB
:1044F0000121204600F092FAA4F87861A4F84E90C9
:10450000CBE73B4601212046D5F8042200F092FA81
:10451000DCE710B5D0F8BC12002909D0027C4AB102
:10452000D1F804224023012100F084FA002010BDBC
:10453000032010BDD1F804224FF40073012100F0D4
:1045400079FAF3E7002903D0C0F8C01200207047C1
:1045500003207047D0F8BC02002803D0C0F8041232
:104560000020704703207047D0F8BC02002805D017
:10457000C0F80812C0F810220020704703207047CE
:104580002DE9FC4105460C46D5F8BC72002001908F
:1045900000900026002F0DD0207810F0600132D05E
:1045A000202909D02146284600F098F803263046F5
:1045B000BDE8FC810320FBE7E288E2B100060ED5EE
:1045C000D5F8C01260788B6839469847E288072A88
:1045D00000D907223946284600F0A6F8E7E76078B8
:1045E00087F80002A07987F80102E2883946284658
:1045F00000F080F8DBE7D5F8C012607800228B6805
:1046000021469847D3E7607858B10128CFD00A28CF
:1046100017D00B2825D02146284600F05FF8032646
:10462000C5E795F89C02032805D02146284600F0EE
:1046300055F80326BBE702226946284600F074F8C5
:10464000B5E795F89C02032805D02146284600F0DE
:1046500045F80326ABE7012201A9284600F064F8DB
:10466000A5E795F89C020328A1D02146284600F032
:1046700035F803269BE710B5D0F8BC1201220029BB
:1046800003D0D1F8143213B10DE0032010BD01F5B1
:1046900002710122CA608A68C2628B680A6881213D
:1046A00000F070FA0022104610BD10B5D0F8B82204
:1046B000002A01D052689047002010BD10B5134663
:1046C0000A46002100F0B6F9002010BD10B51346CF
:1046D0000A46002100F056FA002010BD10B504462D
:1046E0008021204600F034FA2046BDE81040002129
:1046F00000F02EBA10B50323C0F89432C0F8582148
:10470000C0F85C2113460A46002100F093F900200E
:1047100010BD10B50521C0F8941200231A461946A1
:1047200000F088F9002010BD10B50223C0F89432C3
:104730008261C26113460A46002100F023FA00207C
:1047400010BD10B50421C0F8941200231A46194672
:1047500000F018FA002010BD70B50D46164600286E
:1047600018D00446204603F0D9FA022101EB40009C
:10477000308030782870032068700220002206E024
:104780002954641C401CC0B22A54401CC0B2217879
:104790000029F5D170BD01460020002906D001296D
:1047A00005D0022905D0032905D003207047032036
:1047B0007047012070470320704700280FD0002366
:1047C000C0F8B832C0F8C032C0F8CC3209B1C0F875
:1047D000B412012180F89C12027000F0BDB80320D1
:1047E000704710B5D0F8C402FDF793F9BDE810404A
:1047F000FFF7D1BF10B5D0F8C402FDF766F9BDE8E8
:104800001040FFF7C8BF70B504461346002904D016
:1048100094F89C0203284AD051E004F11400D4F823
:1048200094120025022938D1D0E902218A420CD9FC
:10483000521A826019462046FFF748FF00231A46A5
:104840001946204600F0F6F827E0914214D140685E
:10485000884211D3D4F8981288420DD20022114612
:104860002046FFF733FFC4F8985200231A46194632
:10487000204600F0DFF810E094F89C02032805D1F0
:10488000D4F8B802C16809B1204688478021204683
:1048900000F05EF92046FFF73CFF94F8A0020128E3
:1048A0000DD1204600F0A2F984F8A05207E0D4F818
:1048B000B80242691AB120469047002800D1002072
:1048C00070BD10B504461346002904D094F89C022C
:1048D000032823D02AE004F5AA70D4F894120329FF
:1048E00024D1D0E9021291420AD98A1A8260C068A2
:1048F000824200D3024619462046FFF7DFFE15E04C
:1049000094F89C02032805D1D4F8B802016909B1D2
:10491000204688472046FFF714FF07E0D4F8B80286
:1049200082691AB120469047002800D1002010BDAE
:104930000020704710B5012180F89C12D0F8B822F1
:10494000002A02D0526801799047002010BDD0F8AB
:10495000C402FDF70AB9000010B50178002927D17B
:104960001449C1F80404C0F8C4124FF0A040086014
:10497000042048600222CA60002008618A61C86180
:1049800008624862C86208630846FDF79DFB08B1EB
:10499000FBF719FF80210748FDF757F84022002157
:1049A0000448FDF756F8802201210248FDF751F82E
:1049B000002010BD583200200A0601F07F01D0F817
:1049C000C402C1EBC10100EB810002D590F83E00AA
:1049D000704790F8FE01704710B5D0F8B822002A51
:1049E00004D090F89C32032B02D004E0032010BDC9
:1049F000126A02B19047002010BD10B5D0F8B8225D
:104A0000002A04D090F89C32032B02D004E003204B
:104A100010BD526A02B19047002010BD10B5144677
:104A20001A46D0F8C4022346FDF7A8F8BDE81040A6
:104A3000FFF7B1BE10B5D0F8C402FDF7CDF8BDE860
:104A40001040FFF7A8BE70B50446012584F89C52BB
:104A50000020C4F894026060C4F8A402D4F8B8023C
:104A600000281CD0D4F8BC1221B1426812B1002138
:104A7000204690470022402311462046FFF7CEFFF4
:104A8000A4F864514026C4F86061402300228021CC
:104A90002046FFF7C3FFA5842662002070BD0320D7
:104AA00070BD90F89C12042903D190F89D1280F8F3
:104AB0009C120020704710B5D0F8B812002904D01D
:104AC00090F89C22032A02D004E0032010BDC9699B
:104AD00001B18847002010BD01740020704710B557
:104AE000D0F8C402FDF7C3FBBDE81040FFF753BE8A
:104AF00070B5044604F2AA20054600F04CF80120E7
:104B0000C4F89402B4F8B002C4F8980294F8AA2247
:104B100012F01F000AD001280ED0022812D0204621
:104B2000BDE8704002F0800100F012B8294620462E
:104B3000BDE8704000F068B829462046BDE87040E6
:104B400000F087B929462046BDE8704000F093B8D0
:104B500010B5D0F8C402FDF760F8BDE81040FFF7CB
:104B60001ABE10B5D0F8C402FDF79CFBBDE810409A
:104B7000FFF711BE00F52770017841700421017024
:104B80000020704710B5D0F8C402FDF77EF8BDE8EC
:104B90001040FFF700BE70B504460846017821704A
:104BA0004178801C61700546284603F088FA6080D1
:104BB0002846851C284603F082FAA0802846801CDF
:104BC00003F07DFAE08070BD38B504460020009007
:104BD000002909D0C4F8B812C96A19B168468847D3
:104BE000C4F8CC02002038BD032038BD0020704737
:104BF00003460320D3F8B822002A02D012681846D0
:104C000010477047FFF7ADBF10B500240A7812F0C7
:104C100060020DD0202A05D0402A03D0FFF75EFDA8
:104C2000204610BDD0F8B822926890470446F7E7B6
:104C30004A780A2A1CD2DFE802F012181B151B085A
:104C4000051B0F0B03F063F9EAE703F02CF9E7E724
:104C500003F0AAF80446E3E703F06AF8E0E703F09C
:104C600084F8DDE703F04BF9DAE703F009F9D7E759
:104C7000FFF734FDD4E72DE9F04104460D46002648
:104C80002979287810F0600012D0202808D0402818
:104C900006D029462046FFF721FD3046BDE8F081C9
:104CA000D4F8B80229468268204690470646F4E7C1
:104CB000687800285FD001282FD0032804D0294627
:104CC0002046FFF70BFDE8E794F89C02022806D087
:104CD000032814D029462046FFF700FDDDE749B13F
:104CE000802907D02046FFF733FF80212046FFF7B9
:104CF0002FFFD2E729462046FFF7F0FCCDE7688872
:104D000038B931B1802904D0E88810B92046FFF7BE
:104D10001FFF2046FFF715FDBFE794F89C0202280D
:104D200006D0032814D029462046FFF7D7FCB4E765
:104D300049B1802907D02046FFF70AFF802120468D
:104D4000FFF706FFA9E729462046FFF7C7FCA4E7BF
:104D500068880028A1D1480602D02046FFF741FD0F
:104D60002046FFF7EEFCD4F8B802294682682046B8
:104D70009047064691E794F89C020027022806D047
:104D8000032824D029462046FFF7A8FC85E731B147
:104D9000802904D029462046FFF7A0FC7DE70806BD
:104DA00007D501F07F0000EB800004EB8001143197
:104DB00007E001F07F0000EB800004EB800101F5CB
:104DC000AA710F6002222046FFF7AEFC65E70806D5
:104DD0000CD501F00F0000EB800004EB8000808C0C
:104DE00068B929462046FFF779FC56E701F00F0025
:104DF00000EB800004EB8000B0F8640148B10806C5
:104E00000CD501F07F0000EB800004EB8005143529
:104E10000CE029462046FFF761FC3EE701F07F00E9
:104E200000EB800004EB800505F5AA7541B18029EF
:104E300006D02046FFF7C0FD20B10120286002E027
:104E40002F6000E02F60022229462046FFF76CFC0D
:104E500023E770B506460C460025207810F0600266
:104E600009D0202A07D0402A05D021463046FFF736
:104E700035FC284670BD96F89C22012A08D0022AEB
:104E800006D0032A04D021463046FFF727FCF0E77E
:104E9000207901280FD8D6F8B8022146826830461A
:104EA00090470546E0880028E3D1002DE1D1304647
:104EB000FFF747FCDDE721463046FFF70FFCD8E758
:104EC00070470000004870473830002070B50A78FD
:104ED0004E78012302F00F041C4DA340012E19D07F
:104EE000D0F81C4844EA0343C0F81C3800EB4210D9
:104EF000D0F8002B12040BD4D0F8002B0B89C97802
:104F0000C3F30A031A4345EA81410A43C0F8002B60
:104F1000002070BDD0F81C489BB21C43C0F81C4850
:104F200000EB4210D0F800391B04F1D4D0F800395E
:104F30000C89C978C4F30A048904234341EA8251E5
:104F40000B432B43C0F80039E2E70000008000105B
:104F5000D0F800196FF30A01C0F80019D0F804184E
:104F600041F48071C0F80418002070470FB410B5E8
:104F70000446089801281AD0E06840F04000E0603C
:104F8000204603F0A1F80C9941B3A16B21F48031C4
:104F9000A1630699012907D1A16841F00601A1602A
:104FA000A16841F02001A16010BC5DF814FBA06B6A
:104FB00020F48030A063E0680B490840E060E068BE
:104FC00020F44010E0600F98012803D1E06840F41D
:104FD0008010E060204603F077F8DAE7A16B41F437
:104FE0008031A163D5E70000BFFFBDFF70B54B78EE
:104FF0000A78012500EB4212012B2BD0D2F8003B9E
:10500000002B0BDAD2F8003B43F00063C2F8003B00
:10501000D2F8003B43F08043C2F8003B00F61C008E
:10502000046A0B7803F00F0605FA06F324EA03443A
:1050300004620468097801F00F0105FA01F324EA1B
:1050400003410160D2F8000B18490840C2F8000B78
:10505000002070BDD2F80039002B0BDAD2F80039ED
:1050600043F00063C2F80039D2F8003943F08043BE
:10507000C2F8003900F61C00046A0B7803F00F0632
:1050800005FA06F39EB2B44304620468097801F09D
:105090000F0105FA01F399B28C430460D2F80009BC
:1050A00003490840C2F80009D2E700000078F3EF96
:1050B000007833ECD0F8001E21F00301C0F8001E88
:1050C000D0F8041821F00201C0F80418002070473D
:1050D000D0F8001E21F00301C0F8001ED0F804181B
:1050E00041F00201C0F80418002070470FB4F0B579
:1050F000044600260020002504EB8001C1F804517D
:10510000401C0F28F8D3109868B3A06B20F400114E
:10511000A163A06B40F40021A163C4F8005ED4F841
:105120000018C4F800180B9801282FD0032120463E
:1051300000F06EFB1021204600F0B6FA00B1012607
:10514000204600F09DFA00B10126C4F81058C4F8BA
:105150001458C4F81C5800204FF000624FF09043E0
:105160004FF67F3733E0D4F8040840F00201C4F86A
:105170000418A06B40F40011A163A06B20F400217F
:10518000A163A06B20F48021A163C6E7089820B139
:105190000121204600F03CFBCCE70021204600F036
:1051A00037FBC7E704EB4011D1F800C9BCF1000F91
:1051B00006DA10B1C1F8003904E0C4F8002901E0B2
:1051C000C1F80059C1F81059C1F80879401C069976
:1051D0008142E7D8002014E004EB4011D1F800CB65
:1051E000BCF1000F06DA10B1C1F8003B04E0C4F8CE
:1051F000002B01E0C1F8005BC1F8105BC1F8087B2F
:10520000401C06998142E7D8D4F8100820F4807138
:10521000C4F81018A5616FF080406061099818B952
:10522000A06940F01000A061A0690A490843A0618C
:105230000C9818B1A06940F00800A06110980128EE
:1052400003D1A06904490843A0613046F0BC5DF871
:1052500014FB000000383C8004000040816821F00D
:10526000010181600020704770B50C784E780B7892
:10527000414D00EB4313012E1FD0D3F8100B6FF3F9
:105280001200C3F8100BD3F8100B2840C3F8100B12
:10529000486908B188684861D3F8100B40F40020D1
:1052A000C3F8100BD3F8100B8C68C4F3120420431E
:1052B000C3F8100B012A53D056E04E6996B3D3F8C9
:1052C00010696FF31206C3F81069D3F810692E4005
:1052D000C3F810694E698D68AE4200D94D6103F57F
:1052E00011631D6845F400251D601D684E69C6F3F5
:1052F000120635431D60012A23D000EB4412D2F878
:10530000003943F00443C2F800394A693AB3D0F88F
:105310003428097801F00F03012199400A43C0F8AD
:10532000342827E0FFE703F511631E682E401E6056
:105330001D6845F400251D601D686FF312051D6092
:10534000D9E7096919B100EB4412C2F8141900EB4E
:105350004410D0F8001941F00441C0F8001909E0E8
:10536000C86808B1C3F8140BD3F8000B40F0044030
:10537000C3F8000B002070BDFFFF07E010B5036C01
:10538000124CA34205D9D0F8003B002B01DA0020D3
:1053900010BD00F5316000230360036843F400236F
:1053A0000360036843F018030360036843F0C043DD
:1053B0000360A0F53160012906D100F5306042613B
:1053C000016841F080210160002010BD0A30544F77
:1053D0004A780B78012A00EB43100BD0D0F8002B51
:1053E00022F40012C0F8002BC978032914D0022936
:1053F00012D017E0D0F8002922F40012C0F80029DA
:10540000C978032901D002290CD1D0F8001941F044
:105410008051C0F8001905E0D0F8001B41F0805120
:10542000C0F8001B002070470A784B780978012BE0
:1054300000EB411012D0D0F8001B002906DB2AB186
:10544000D0F8001B21F08041C0F8001BD0F8001BF1
:1054500041F40011C0F8001B00207047D0F800197B
:10546000002906DB2AB1D0F8001921F08041C0F8EC
:105470000019D0F8001941F40011C0F80019EBE749
:10548000F8B50C784F780B78794D6FF0604600EBEB
:105490004313012F26D0D3F8104B6FF31204C3F837
:1054A000104BD3F8104B2C40C3F8104B4C69002C18
:1054B0007ED08D682C44641EB4FBF5F4A4B2D3F8FE
:1054C000105B06EAC4463543C3F8105BD3F8105BA3
:1054D0008E686643C6F312042543C3F8105B012AA5
:1054E00067D0A9E04F69FFB103F511631F686FF33F
:1054F00012071F601F682F401F604F698D682F447F
:105500007F1EB7FBF5F506EAC5451E6835431D60ED
:105510001D684E69C6F3120635431D60A3F511637D
:10552000CD78012D0ED017E003F511631E682E40D3
:105530001E601D6845F400251D601D686FF312058F
:105540001D6009E003F511631D6825F0C0451D606D
:105550001D6845F000551D60012A17D000EB44136B
:10556000D3F8004944F00444C3F80049CC78012C36
:1055700036D04A699AB3D0F83428097801F00F037D
:10558000012199400A43C0F834286FE00A691AB132
:1055900000EB4413C3F81429C978012917D1D0F8B6
:1055A0000818C9050BD400EB4411D1F8002901E01B
:1055B0002FE03DE042F00052C1F8002907E000EB87
:1055C0004411D1F8002942F08052C1F8002900EBC3
:1055D0004410D0F8001941F00441C0F8001945E02A
:1055E000D0F80848E40506D4D3F8004944F0005444
:1055F000C3F8004905E0D3F8004944F08054C3F8EB
:10560000004900928A8A93B20A78C96800F082F948
:105610002CE0D3F8104B8D68C5F312052C43C3F86A
:10562000104BD3F8104B44F40024C3F8104B56E74A
:10563000CA680AB1C3F8142BC978012910D1D0F86F
:105640000808C00506D4D3F8000B40F00050C3F89A
:10565000000B05E0D3F8000B40F08050C3F8000BBE
:10566000D3F8000B40F00440C3F8000B0020F8BD55
:10567000FFFF07E0816841F0010181600020704771
:1056800008B50021009110210161064A0099491CCA
:105690000091914201D9032008BD0169C906F5D4E2
:1056A000002008BD400D030008B500220092202212
:1056B00042EA81110161064A0099491C0091914218
:1056C00001D9032008BD01698906F5D4002008BD71
:1056D000400D0300D0F8080800F00600002805D0AF
:1056E000022805D0062803D00F20704700207047FD
:1056F00002207047406900F001007047D0F8181888
:10570000D0F81C08084080B27047D0F81818D0F8BC
:105710001C080840000C704710B5D0F81038D0F8BD
:10572000342801F00F04E24002F0010243EAC21201
:1057300000EB4110D0F80809104010BD00EB4111FA
:10574000D1F8081BD0F814080840704741698069F7
:105750000840704730B503460846940802F003013C
:10576000002203F5805303E01D6840F8045B521CDF
:10577000A242F9D300290BD000221C68D50024FADC
:1057800005F300F8013B521C491E89B20029F5D1EE
:1057900030BD70B505460024E86820F0C040E860E0
:1057A000012902D089B1012070BDE86840F00050A5
:1057B000E8600120FBF744FE641C2846FFF79AFFCF
:1057C000012810D0322CF4D30DE0E86840F080407E
:1057D000E8600120FBF734FE641C2846FFF78AFFCF
:1057E00008B1322CF5D3322C01D0002070BD01203D
:1057F00070BD00F50060026822F4FE62026002687B
:105800004FF4FE6303EA01110A430260002070476F
:10581000D0F800280A43C0F8002800207047000094
:10582000022A0ED082B30921C26822F47052C260EB
:10583000C2684FF4705303EA81210A43C26000201A
:105840007047224A224B0A449A4201D20F21EBE7C9
:10585000204A214B0A449A4201D20E21E4E71F4A12
:105860001F4B0A449A4201D20D21DDE71D4A1E4B0F
:105870000A449A4201D20C21D6E71C4A1C4B0A4426
:105880009A4202D20B21CFE71DE01A4A1A4B0A4472
:105890009A4201D20A21C7E7184A194B0A449A4290
:1058A00001D20921C0E7174A174B0A449A4201D294
:1058B0000821B9E7154A1144154A914201D207213E
:1058C000B2E70621B0E70921AEE70000405327FF09
:1058D00000350C00401E1BFF40420F0000DC0BFF98
:1058E000804F1200808CF9FE20D6130060B6E5FED2
:1058F00060E3160000D3CEFE40771B00C05BB3FE12
:10590000C091210000CA91FE20753800E05459FE74
:10591000E09C410010B5029C002C0DD1DB1C9C08C2
:10592000002300EB023000F5805003E051F8042B17
:1059300002605B1CA342F9D3002010BDFEE700000B
:105940002DE9F04F9BB007468CA000681A908CA000
:105950000068199089A00068189089A000681790C5
:1059600088A003C8CDE9150185A00068149087A020
:1059700003C8CDE9120187A003C8CDE9100187A0B3
:1059800003C8CDE90E0187A003C8CDE90C017BA0B7
:1059900000680B9085A003C8CDE9090185A0D0E976
:1059A00000128068CDE9061208908549DFF814A23C
:1059B00002240526142540F252234FF004084FF02C
:1059C000030B0DF12409002F0CD0CDE90419CDE90A
:1059D000005602944FF4D86203940121002000F095
:1059E000D5FF1FE09AF8020078B101281AD1CDE95D
:1059F000005B0294CDE9034119A805904FF4D862E9
:105A00000221002000F0C2FF0CE0CDE900581AA8E6
:105A1000CDE90410CDE902464FF4D86202210020FE
:105A200000F0B4FF66494FF40773091D67B1CDE973
:105A30000419CDE90058CDE902464FF4D86201219E
:105A4000002000F0A3FF20E09AF8050010B1012823
:105A50001BD10DE0CDE9005818A8CDE90410CDE91F
:105A600002464FF4D8620221002000F08FFF0CE0C4
:105A7000CDE9005B0294CDE9034117A805904FF4EE
:105A8000D8620221002000F081FF4D494FF4F373EA
:105A90003C3167B1CDE90419CDE90246CDE90056A4
:105AA0004FF4D8620121002000F070FF1FE09AF847
:105AB000030078B101281AD1CDE9005B0294CDE949
:105AC000034114A805904FF4D8620221002000F091
:105AD0005DFF0CE0CDE9005615A8CDE90410CDE935
