:020000040800F2
:10000000309A00206D020008994E0008B946000899
:10001000954E0008AB060008456F00080000000080
:10002000000000000000000000000000AF4E0008CB
:10003000B907000800000000AD4E0008B14E0008EE
:10004000870200088702000887020008870200086C
:100050008702000887020008BB0700088702000823
:1000600087020008C5070008CF07000887020008BC
:100070002907000839070008870200084907000817
:10008000870200088702000887020008870200082C
:10009000B1060008C106000887020008D907000859
:1000A000870200088702000887020008870200080C
:1000B00087020008870200088702000887020008FC
:1000C00087020008870200088702000887020008EC
:1000D00087020008255100088702000835510008F2
:1000E000870200088702000887020008DD4E00082A
:1000F00087020008870200088702000887020008BC
:100100008702000887020008CD4E00088702000819
:10011000870200088702000887020008870200089B
:1001200087020008590700086907000879070008D6
:10013000870200088702000887020008870200087B
:10014000D1060008E1060008870200089D4E00085D
:100150008907000899070008A90700084551000809
:10016000870200088702000887020008870200084B
:1001700087020008870200088702000800000000CC
:10018000870200088702000800F002F800F05EF81D
:100190000AA090E8000C82448344AAF10107DA45E2
:1001A00001D100F053F8AFF2090EBAE80F0013F0D6
:1001B000010F18BFFB1A43F0010318479CBF000052
:1001C000BCBF00000A444FF0000C10F8013B13F0D4
:1001D000070408BF10F8014B1D1108BF10F8015BA0
:1001E000641E05D010F8016B641E01F8016BF9D193
:1001F00013F0080F1EBF10F8014BAD1C0C1B09D1EA
:100200006D1E58BF01F801CBFAD505E014F8016B5B
:1002100001F8016B6D1EF9D59142D6D370470000ED
:100220000023002400250026103A28BF78C1FBD8FF
:10023000520728BF30C148BF0B6070471FB50BF095
:1002400085FC00F04BF91FBD10B510BD00F075F92D
:100250001146FFF7F3FF0AF05DF900F093F903B4DC
:10026000FFF7F2FF03BC00F0A3F900000948804744
:1002700009480047FEE7FEE7FEE7FEE7FEE7FEE788
:10028000FEE7FEE7FEE7FEE704480549054A064BA0
:1002900070470000B94E000889010008303A00207C
:1002A000309A0020305A0020305A002053EA020CC5
:1002B00000F069802DE9F04B4FF00006002B1FBFC6
:1002C000B3FA83F503FA05F424FA05F65E4012BF8B
:1002D0001643B2FA82F502FA05F4C5F120051EBFF5
:1002E00022FA05FC44EA0C04203556EA044C4FEA95
:1002F000144418BF641C4FF000084FF000099042EE
:1003000071EB030C39D3002919BFB1FA81F701FA57
:1003100007F6B0FA80F700FA07F6C7F120071EBF0C
:1003200020FA07FC46EA0C062037B6FBF4FCA7EBE4
:100330000507103F07F01F0BCBF120060CFA0BFB53
:100340002CFA06F644BFB3460026202FA4BF5E4613
:100350004FF0000B5BEA060C08BF4FF0010B19EBE6
:100360000B09ABFB027C48EB0608C01B06FB02CC6A
:100370000BFB03CC71EB0C01C1E70B460246414677
:100380004846BDE8F08B13B54FF000004FF0000178
:10039000AFF30080BDE81C407047032A40F2308074
:1003A00010F0030C00F0158011F8013BBCF1020FB6
:1003B000624498BF11F801CB00F8013B38BF11F837
:1003C000013BA2F1040298BF00F801CB38BF00F84E
:1003D000013B11F0030300F02580083AC0F00880CB
:1003E00051F8043B083A51F804CBA0E80810F5E7AF
:1003F000121D5CBF51F8043B40F8043BAFF3008092
:10040000D20724BF11F8013B11F801CB48BF11F806
:10041000012B24BF00F8013B00F801CB48BF00F8D6
:10042000012B704710B5203AC0F00B80B1E818508E
:10043000203AA0E81850B1E81850A0E81850BFF4CE
:10044000F5AF5FEA027C24BFB1E81850A0E818506D
:1004500044BF18C918C0BDE810405FEA827C24BFC1
:1004600051F8043B40F8043B08BF7047D20728BF4F
:1004700031F8023B48BF11F8012B28BF20F8023B9E
:1004800048BF00F8012B70474FF0000200B513463B
:1004900094469646203922BFA0E80C50A0E80C50A4
:1004A000B1F12001BFF4F7AF090728BFA0E80C5055
:1004B00048BF0CC05DF804EB890028BF40F8042B4E
:1004C00008BF704748BF20F8022B11F0804F18BFBB
:1004D00000F8012B704770477047704770B5064CA5
:1004E0007C44064D7D4403E0206820448047241D61
:1004F000AC42F9D170BD000094BC0000B8BC000053
:1005000000487047CC3900201FB584B000200A9CF9
:1005100006AB04AA02A90094AFF3008018B1DDE98C
:10052000020108B010BD0348204000F039F8002057
:100530000146F6E70000207C70477546FFF7E0FFB4
:10054000AE4605006946534620F00700854618B0C0
:1005500020B5FFF799FEBDE820404FF000064FF0B0
:1005600000074FF000084FF0000B21F00701AC46E8
:10057000ACE8C009ACE8C009ACE8C009ACE8C00907
:100580008D46704710B50446AFF300802046BDE8A5
:100590001040FFF764BE002801D000F009B8704792
:1005A00010B500F025F8BDE81040FFF7F4BF0000DB
:1005B00001491820ABBEFEE72600020070B50546D3
:1005C0000C460A2000E06D1C00F068F835B1287870
:1005D0000028F8D102E0641C00F060F814B1207823
:1005E0000028F8D1BDE870400A2000F057B800009C
:1005F00010B5022803D0410103D50DA112E000205F
:1006000010BD010101D50FA10CE0C10001D511A160
:1006100008E0810001D512A104E0400001D513A13A
:1006200000E0002115A0FFF7C9FF012010BD000068
:10063000496E76616C6964204F7065726174696F90
:100640006E000000446976696465204279205A652D
:10065000726F00004F766572666C6F770000000065
:10066000556E646572666C6F77000000496E657840
:1006700061637420526573756C740000534947467A
:1006800050453A2041726974686D657469632065EC
:100690007863657074696F6E3A20000008B569462A
:1006A0008DF800000320ABBE08BD00BFFEE70000D0
:1006B00010B5024800F0A8FA10BD0000EC030020BD
:1006C00010B5024800F0A0FA10BD0000EC030020B5
:1006D00010B5024800F098FA10BD00001404002084
:1006E00010B5024800F090FA10BD0000140400207C
:1006F0002DE9F04104460D4600260A48D0F8BC72A8
:10070000D7F8140210B10120BDE8F0812A46214635
:10071000044804F079FE034804F012FF0646304610
:10072000F2E70000C81E002010B5024800F00CFEE1
:1007300010BD0000A409002010B5024800F004FE1E
:1007400010BD00009004002010B5024800F0FCFD30
:1007500010BD0000F004002010B5024800F0F4FDC8
:1007600010BD0000040A002010B5024800F0ECFDA6
:1007700010BD0000A805002010B5024800F0E4FDFF
:1007800010BD00000806002010B5024800F0DCFD96
:1007900010BD0000E408002010B5024800F0D4FDB0
:1007A00010BD0000640A002010B5024800F0CCFD26
:1007B00010BD000044090020704710B5012000F072
:1007C000B9FF10BD10B5082000F0B4FF10BD10B582
:1007D000102000F0AFFF10BD10B5202000F0AAFFE0
:1007E00010BD72B600BFFEE710B5024692F8203089
:1007F000012B01D0022B06D1106840690843146810
:100800006061002010BD506A40F4802050620120D9
:10081000F8E7F0B504460D461E4694F820702068AF
:100820008368A86800B900E000BF012F01D0022F43
:100830007CD103F0806030B903F0006018B903F098
:100840008050002873D0C3F30161022905D9606A82
:1008500040F4000060620120F0BD0120884030605B
:10086000A86860B9B5F800C0E86840EA4C5C206848
:1008700000F5C07000EB0110C0F800C00FE0D5E932
:1008800001C040EACC00D5F80CC040EA0C00D4F816
:1008900000C00CF5C07C0CEB011CCCF80000D5F8B6
:1008A00010C0206800F5C07000EB0110C0F804C053
:1008B000287D01280ED1206800F5C07000EB0110E2
:1008C000406840F4807C206800F5C07000EB0110A7
:1008D000C0F804C0D079000692F806C040EA0C4087
:1008E00092F805C040EA0C2C10794CEA000C206804
:1008F00000F5C07000EB0110C0F80CC0D078000605
:1009000092F802C040EA0C4092F801C040EA0C2084
:1009100092F800C040EA0C00D4F800C00CF5C07C8E
:100920000CEB011CCCF80800206801E016E00FE099
:1009300000F5C07000EB0110006840F0010C206869
:1009400000F5C07000EB0110C0F800C0002083E784
:10095000606A40F40010606201207DE7606A40F444
:1009600080206062012077E7F0B504460A462168DE
:1009700094F82050012D01D0022D7ED1424901F57D
:100980000071086840F001000860086820F47C509D
:1009900008600868566A40EA06200860107D00F08A
:1009A0001F06012000FA06F3C8699843C861A1F543
:1009B0000071D069C8B9D1F80C029843C1F80C0293
:1009C000908880B2968940EA064601F51070576912
:1009D00040F83760108880B2168940EA064601F573
:1009E0001070576900EBC7004660D069012819D123
:1009F000D1F80C021843C1F80C02908880B2168816
:100A000040EA064601F51070576940F83760908952
:100A100080B2168940EA064601F51070576900EB6E
:100A2000C7004660906928B9D1F804029843C1F81C
:100A3000040204E0D1F804021843C1F8040210696A
:100A400028B9D1F814029843C1F8140204E0D1F88F
:100A500014021843C1F81402106A012804D1D1F815
:100A60001C021843C1F81C02D1F8000220F001005A
:100A7000C1F800020020F0BDFFE7606A40F480206A
:100A800060620120F7E7000000640040704770B525
:100A9000044694F82050012D01D0022D7DD151B98A
:100AA0002068C06800F0030080B9606A40F400105C
:100AB0006062012070BD2068006900F0030028B961
:100AC000606A40F4001060620120F3E7206800F5DE
:100AD000D87000EB0110006800F00400906090688E
:100AE00040B9206800F5D87000EB01100068400D97
:100AF000106007E0206800F5D87000EB0110006876
:100B0000C0085060206800F5D87000EB0110006844
:100B100000F00200D060206800F5D87000EB0110F2
:100B2000406800F00F001061206800F5D87000EBFD
:100B30000110406800F47F40000A9061206800F5D1
:100B4000D87000EB01104068000C5061206800F57F
:100B5000D87000EB011080681870206800F5D8701C
:100B600000EB0110806800F47F40000A5870206894
:100B700000F5D87000EB0110806800F47F00000CD5
:100B80009870206800F5D87000EB01108068000EA6
:100B9000D870206800F5D87000E02FE000EB01105D
:100BA000C0681871206800F5D87000EB0110C068AB
:100BB00000F47F40000A5871206800F5D87000EBFF
:100BC0000110C06800F47F00000C9871206800F5E7
:100BD000D87000EB0110C068000ED87131B92068E0
:100BE000C06840F020002668F06005E020680069D9
:100BF00040F020002668306100205BE7606A40F426
:100C000080206062012055E72DE9F05F0446002551
:100C1000206846692068D0F80490206887682068BA
:100C2000D0F80CA02068D0F810B02068D0F8188058
:100C300006F00100002855D007F00100C0B10120E6
:100C40002168886007F0020018B1204600F00BFB15
:100C50000EE007F0040010B145F4006508E007F06D
:100C6000080010B145F4805502E0204600F0FAFA81
:100C700007F48070C8B14FF480702168886007F471
:100C8000007018B1204600F0F0FA0EE007F4806022
:100C900010B145F4005508E007F4006010B145F4C8
:100CA000804502E0204600F0DFFA07F48030C8B14A
:100CB0004FF480302168886007F4003018B1204676
:100CC00000F0D5FA0EE007F4802010B145F400459D
:100CD00008E007F4002010B145F4803502E020461A
:100CE00000F0C4FA06F0080038B10AF0100020B194
:100CF00045F4007510202168C86006F0040040B17A
:100D00000AF0080028B108202168C860204600F0D9
:100D10001DFA06F0020038B12068C06800F0030038
:100D200010B1204600F014FA06F0400038B10BF084
:100D3000100020B145F4806510202168086106F09C
:100D4000200040B10BF0080028B10820216808619C
:100D5000204600F029FA06F0100038B1206800693A
:100D600000F0030010B1204600F020FA06F4003035
:100D700040B109F0100028B11020216848602046D9
:100D800000F040FA06F4803040B109F0080028B1C4
:100D9000082021684860204600F06AFA06F4004006
:100DA00088B309F0040078B306F4807020B108F02D
:100DB000010008B145F0010506F4007020B108F00B
:100DC000020008B145F0020506F4806020B108F089
:100DD000040008B145F0040506F40060A0B108F075
:100DE000700088B108F07000402817D006DC102889
:100DF0000BD020280CD0302819D10CE0502810D06E
:100E0000602814D110E01DE019E045F008050FE05E
:100E100045F010050CE045F0200509E045F04005DF
:100E200006E045F0800503E045F4807500E000BF72
:100E300000BF2068806920F070002168886104206C
:100E4000216848602DB1606A284360622046FFF740
:100E50001DFEBDE8F09F70B504460CB9012070BDC1
:100E600094F8200010B9204600F0B0F8206800681F
:100E700040F001002168086000F068FD05460DE0C3
:100E800000F064FD401B0A2808D9606A40F4003075
:100E90006062052084F820000120E0E720684068B7
:100EA00000F001000028EBD02068006820F002006C
:100EB0002168086000F04AFD05460DE000F046FD9F
:100EC000401B0A2808D9606A40F40030606205209F
:100ED00084F820000120C2E72068406800F002008A
:100EE0000028EBD1207E012806D12068006840F060
:100EF00080002168086005E02068006820F080001C
:100F000021680860607E012806D12068006840F0F2
:100F100040002168086005E02068006820F040007B
:100F200021680860A07E012806D12068006840F092
:100F300020002168086005E02068006820F020009B
:100F400021680860E07E012806D12068006820F052
:100F500010002168086005E02068006840F010007B
:100F600021680860207F012806D12068006840F0D1
:100F700008002168086005E02068006820F008008B
:100F800021680860607F012806D12068006840F071
:100F900004002168086005E02068006820F0040073
:100FA00021680860D4E902010843216908436169A6
:100FB00008436168491E08432168C86100206062D7
:100FC000012084F82000002049E7000010B586B019
:100FD0000446142101A8FFF757FA564920688842B1
:100FE00049D155480068401C5349086008460068CC
:100FF00001280FD100BF002000905048006840F049
:1010000000704E4908600846006800F000700090CB
:1010100000BF00BF00BF00200090484810380068A3
:1010200040F008004549103908600846006800F0A3
:101030000800009000BF00BF032001900220029032
:1010400000200390032004900920059001A93C484A
:1010500000F07EFB00221146142000F091FE1420C7
:1010600000F07EFE00221146152000F089FE1520BA
:1010700000F076FE5CE033492068884258D100BF1A
:10108000002000902D48006840F080602B490860E7
:101090000846006800F08060009000BF00BF26484E
:1010A0000068401C244908600846006801280FD1E8
:1010B00000BF002000902148006840F000701F49E8
:1010C00008600846006800F00070009000BF00BF94
:1010D00000BF0020009019481038006840F002005E
:1010E0001649103908600846006800F002000090B8
:1010F00000BF00BF602001900220029000200390FA
:10110000032004900920059001A90F4800F020FB5E
:1011100000221146402000F033FE402000F020FE67
:1011200000221146412000F02BFE412000F018FE65
:1011300006B010BD006400400400002040380240AA
:10114000000C0240006800400004024070470000AC
:1011500010B504461049206888420CD10F4BA3F10A
:101160001C0200212046FFF792FC0C482038816ABF
:10117000001D88470FE00A49206888420BD1094BBF
:10118000A3F11C0200212046FFF781FC054820380E
:10119000816A001D884710BD006400407C0B002060
:1011A00000680040A80B00207047000010B50446FE
:1011B0001049206888420CD10F4BA3F11C02012179
:1011C0002046FFF764FC0C482038816A001D8847E0
:1011D0000FE00A49206888420BD1094BA3F11C0299
:1011E00001212046FFF753FC05482038816A001D85
:1011F000884710BD006400407C0B00200068004060
:10120000A80B0020704770B5044694F82000012810
:1012100022D1022084F820002068006820F001001C
:101220002168086000F092FB05460DE000F08EFB9F
:10123000401B0A2808D9606A40F40030606205202B
:1012400084F82000012070BD2068406800F0010093
:101250000028EBD16062F6E7606A40F4002060622B
:101260000120F0E77047704770477047704770473C
:10127000704770B50446A56D00F068FB064694F80B
:101280003500022808D08020606500BF002084F867
:10129000340000BF012070BD2068006820F01600F7
:1012A000216808602068406920F08000216848615A
:1012B000206C08B9A06C28B12068006820F00800F4
:1012C000216808602068006820F00100216808603B
:1012D00010E000F03BFB801B05280BD92020606547
:1012E000032084F8350000BF002084F8340000BFDC
:1012F0000320D0E72068006800F001000028E8D152
:1013000094F85C103F208840A860012084F83500E4
:1013100000BF002084F8340000BF00BFBBE70146D7
:1013200091F83500022803D08020486501207047DD
:10133000052081F835000868006820F001000A687F
:1013400010600020F3E70000F8B50446002000908C
:101350008C4800684FF41651B0FBF1F7A56D2E686C
:1013600094F85C1008208840304098B120680068EC
:1013700000F0040070B12068006820F004002168CB
:10138000086094F85C1008208840A860606D40F008
:101390000100606594F85C1001208840304068B11D
:1013A0002068406900F0800040B194F85C10012092
:1013B0008840A860606D40F00200606594F85C10A1
:1013C00004208840304068B12068006800F00200C6
:1013D00040B194F85C1004208840A860606D40F033
:1013E0000400606594F85C1010208840304078B3A9
:1013F0002068006800F0080050B394F85C101020DA
:101400008840A8602068006800F4802080B12068CF
:10141000006800F4002028B9206CC8B12046216C77
:10142000884715E0A06C98B12046A16C88470FE072
:101430002068006800F4807028B92068006820F0F7
:10144000080021680860206C10B12046216C884794
:1014500094F85C10202088403040002865D0206837
:10146000006800F0100000285FD094F85C10202085
:101470008840A86094F83500052828D120680068C5
:1014800020F01600216808602068406920F0800084
:1014900021684861206C08B9A06C28B120680068F8
:1014A00020F008002168086094F85C103F20884014
:1014B000A860012084F8350000BF002084F83400C3
:1014C00000BF206D10B12046216D8847F8BD20680F
:1014D000006800F4802080B12068006800F40020DB
:1014E00028B9606C10B12046616C88471DE0E06B44
:1014F000D8B12046E16B884717E02068006800F407
:10150000807068B92068006820F0100021680860C9
:10151000012084F8350000BF002084F8340000BFAB
:10152000E06B10B12046E16B8847606D38B3606DA9
:1015300000F00100F0B1052084F835002068006853
:1015400020F001002168086000BF0098401C009056
:10155000B84200D905E02068006800F001000028CA
:10156000F3D100BF012084F8350000BF002084F8CB
:10157000340000BFE06C10B12046E16C884700BF2A
:10158000A4E70000140000202DE9F04104460025E6
:1015900000F0DCF9074614B90120BDE8F081606A6B
:1015A00000B100BF022084F8350000BF002084F89D
:1015B000340000BF2068006820F001002168086046
:1015C0000AE000F0C3F9C01B052805D9202060659A
:1015D000032084F83500E0E72068006800F001008F
:1015E0000028EED12068056821480540D4E90101B2
:1015F0000843E16808432169084361690843A16918
:101600000843E1690843216A08430543606A0428E6
:1016100003D1D4E90B010843054320680560206825
:10162000456925F00705606A0543606A04280DD105
:10163000A06A0543E06A48B1204607F085FB28B15F
:1016400040206065012084F83500A6E720684561E8
:10165000204607F0CFFB064694F85C103F208840F8
:10166000B06000206065012084F83500002094E718
:101670003F8010F02DE9F04704460D4616461F4600
:101680004FF00008D4F8589000BF94F834000128B7
:1016900002D10220BDE8F087012084F8340000BFA9
:1016A00094F83500012825D1022084F83500002067
:1016B00060653B4632462946204607F02FFB94F8EA
:1016C0005C103F208840C9F808002068006840F09E
:1016D000160021680860206C28B12068006840F07E
:1016E0000800216808602068006840F00100216857
:1016F000086006E000BF002084F8340000BF4FF00F
:1017000002084046C6E7000070B5044600F01EF926
:1017100006462546681C10B104480078054400BF01
:1017200000F014F9801BA842FAD370BD100000200D
:101730007047000010B5044604480068204020B1FE
:10174000024804602046FFF7F3FF10BD143C01403F
:10175000F8B502460B460025002400200021D5E004
:10176000012606FA01F51E6806EA0504AC4274D1AA
:101770001E7906F00306012E04D01E7906F003063A
:10178000022E13D190684F000326BE40B0434F0095
:10179000DE68BE4030439060506801268E40B04302
:1017A0001E79C6F300168E40304350601E7906F055
:1017B0000306032E09D0D0684F000326BE40B04375
:1017C0004F009E68BE403043D0601E7906F003068D
:1017D000022E13D1CF0802F1200656F827004E073B
:1017E000F70E0F26BE40B0434F07FF0E1E69BE40E6
:1017F0003043CF0802F1200646F8270010684F005A
:101800000326BE40B0431E7906F003064F00BE40DB
:10181000304310605E6806F44036002E75D000BF7D
:10182000002600963B4E366846F48046394F3E60AF
:101830003E46366806F48046009600BF00BF364E2E
:101840008F0856F827008E07370F0F26BE40B0438B
:10185000324EB24202D1002624E056E0304EB2426F
:1018600001D101261EE02F4EB24201D1022619E01D
:101870002D4EB24201D1032614E02C4EB24201D1CA
:1018800004260FE02A4EB24201D105260AE0294E75
:10189000B24201D1062605E0274EB24201D1072609
:1018A00000E008268F073F0FBE4030431A4E8F08D6
:1018B00046F82700214E3068A0435E6806F4803663
:1018C00006B120431D4E3060361D3068A0435E686F
:1018D00006F4003606B12043184E361D3060361D22
:1018E0003068A0435E6806F4801606B12043134EAC
:1018F00008363060361D3068A0435E6806F4001676
:1019000006B120430D4E0C363060491C1029FFF4FF
:1019100027AFF8BD443802400838014000000240BB
:101920000004024000080240000C02400010024087
:101930000014024000180240001C0240003C01401C
:101940000AB1816101E00B048361704701480068BE
:10195000704700000800002070B504460CB9012053
:1019600070BD94F83D0028B9002084F83C00204662
:1019700000F0DAF8242084F83D002068006820F0A8
:101980000100216808602068006840F40040216878
:1019900008602068006820F400402168086001F0B9
:1019A00017F905465C496068884206D85B4885425D
:1019B00001D2012007E0002005E05948854201D20C
:1019C000012000E00020012800D1C9E75548B5FBFF
:1019D000F0F62068406820F03F00304321684860FE
:1019E0004D496068884201D8701C07E04FF496703A
:1019F00070434FF47A71B0FBF1F0401C2168096A22
:101A000021F03F0108432168086243496068884229
:101A100014D8681E61684900B0FBF1F0401CC0F3A7
:101A20000B00042801D204203DE0681E61684900D3
:101A3000B0FBF1F0401CC0F30B0034E0A06838B9F3
:101A4000681E616801EB4101B0FBF1F0401C0AE047
:101A5000681E616801EBC10202EB0111B0FBF1F0FD
:101A6000401C40F48040C0F30B0008B901201AE08C
:101A7000A06848B9681E616801EB4101B0FBF1F054
:101A8000401CC0F30B000CE0681E616801EBC10252
:101A900002EB0111B0FBF1F0401CC0F30B0040F46D
:101AA000804040F400402168C9694CF6FF729143C0
:101AB00008432168C861D4E907010843216809681F
:101AC00021F0C001084321680860D4E903100843ED
:101AD0002168896848F2FF32914308432168886091
:101AE000D4E9050108432168C96821F0FF010843D2
:101AF0002168C8602068006840F001002168086023
:101B000000202064202084F83D000020206384F819
:101B10003E0000BF24E70000A086010080841E0074
:101B200000093D0040420F0010B586B00446142164
:101B300001A8FEF7A9FC4949206888427ED100BF70
:101B4000002000904648006840F0040044490860C6
:101B50000846006800F00400009000BF00BF00BF0E
:101B6000002000900846006840F001000860084628
:101B7000006800F00100009000BF00BF4815019010
:101B8000122002900120039003200490042005906D
:101B900001A93448FFF7DCFD4FF48070019012205A
:101BA000029001200390032004900420059001A9D5
:101BB0002D48FFF7CDFD00BF0020009028481030D1
:101BC000006840F4000026491031086008460068AB
:101BD00000F40000009000BF00BF244824490860C2
:101BE0004FF0C0604860002121488160C1604FF41F
:101BF00080610161002141618161C16101624162D5
:101C0000FFF7C2FC08B1FEF7ECFD00BF1848A06367
:101C1000846300BF15483030164908604FF0C0603B
:101C200048604021134881600021C1604FF4806109
:101C30000161002141618161C16100E00BE001624D
:101C40004162FFF7A1FC08B1FEF7CBFD00BF0948D8
:101C50006063846300BF06B010BD0000005C0040FC
:101C6000303802400008024000000240406002405C
:101C700090040020F004002003480068034909781C
:101C80000844014908607047080000201000002047
:101C900010B50D48006840F400700B490860084614
:101CA000006840F4806008600846006840F4807076
:101CB0000860032000F0A2F80F2000F007F800F001
:101CC0002BF8002010BD0000003C024070B5044617
:101CD0000E4800784FF47A71B1FBF0F00C490968B6
:101CE000B1FBF0F5284601F053FB08B1012070BDAF
:101CF000102C07D200222146501E00F041F8054862
:101D0000046001E00120F2E70020F0E7100000206D
:101D1000140000200C00002008B500BF0020009037
:101D20000E48006840F480400C490860084600688E
:101D300000F48040009000BF00BF00BF0020009072
:101D4000081F006840F08050091F086008460068BE
:101D500000F08050009000BF00BF08BD4438024032
:101D600001460846002809DB00F01F0301229A40C3
:101D700043099B0003F1E023C3F8002100BF704733
:101D80002DE9F05F80460D461646002707F062FDFC
:101D9000074639462A46334601F00700C0F1070AD4
:101DA000BAF1040F02D94FF0040A01E0C0F1070AAA
:101DB000D14600F1040ABAF1070F02D24FF0000A2F
:101DC00001E0A0F1030AD4464FF0010A0AFA09FA29
:101DD000AAF1010A0AEA020A0AFA0CFA4FF0010B08
:101DE0000BFA0CFBABF1010B0BEA030B4AEA0B04F9
:101DF0002146404607F01AFDBDE8F09F00BF00F005
:101E00000702064B19684FF6FF031940044B0B43BA
:101E100043EA0221014B196000BF70470CED00E05E
:101E20000000FA05704702461068416200207047C2
:101E3000F0B5034615461868446A21B944EA0540DE
:101E40001E68B06219E01868806A04EB1044002232
:101E500008E0186800F5827050F8220004EB104486
:101E6000501CC2B2481E9042F3D844EA0547186895
:101E700000F582704E1E40F826700020F0BD10B5AF
:101E80000446D4F8040403F025FD10BD70B50446E3
:101E90000D46C5EBC50304F13C0101EB8301CA68A3
:101EA0002946D4F8040403F05DFC70BD70B5044607
:101EB0000D46C5EBC50304F5FE7101EB8301CA684D
:101EC0002946D4F8040403F0BEFC70BD10B50446E6
:101ED000D4F8040403F001FD10BD70B504460E46AD
:101EE00006F0800080280AD106F00F00C0EBC00188
:101EF00004F13C0000EB81050120687009E006F068
:101F00000F00C0EBC00104F5FE7000EB810500205E
:101F1000687006F00F00287000BF94F8BC03012819
:101F200001D1022070BD012084F8BC0300BF294606
:101F3000206804F041F900BF002084F8BC0300BF12
:101F400000BFEFE770B504460E4606F00F0061686B
:101F5000884201D9012070BD06F0800080280AD196
:101F600006F00F00C0EBC00104F13C0000EB81055E
:101F70000120687009E006F00F00C0EBC00104F515
:101F8000FE7000EB8105002068700020A87006F04C
:101F90000F00287000BF94F8BC03012801D1022073
:101FA000D9E7012084F8BC0300BF2946206804F06B
:101FB000E9FB00BF002084F8BC0300BF00BFCAE7F4
:101FC000024601F00F00C0EBC00302F5FE7000EB0B
:101FD0008300806970472DE9F04705460E4690461C
:101FE0001F464FF0000906F0800080280AD106F055
:101FF0000F00C0EBC00105F13C0000EB81040120A3
:10200000607009E006F00F00C0EBC00105F5FE703E
:1020100000EB81040020607006F00F002070C4F80F
:102020000880E770607808B12078E080022F01D145
:102030000020207100BF95F8BC03012802D10220C6
:10204000BDE8F087012085F8BC0300BF2146286861
:1020500003F0F4FF00BF002085F8BC0300BF484632
:10206000EEE72DE9F04104460E461746984606F085
:102070000F00C0EBC00104F5FE7000EB8105EF60BE
:10208000C5F814800020A861687006F00F00287061
:102090002069012800D12F6106F00F0028B9227CA9
:1020A0002946206804F04AFA04E0227C2946206888
:1020B00004F0FCFB0020BDE8F08170B504460D463D
:1020C00005F00F006168884201D9012070BD05F05C
:1020D000800080280AD105F00F00C0EBC00104F198
:1020E0003C0000EB81060120707007E0C5EBC501E4
:1020F00004F5FE7000EB8106002070700120B070C6
:1021000005F00F00307000BF94F8BC03012801D126
:102110000220DBE7012084F8BC0300BF31462068C1
:1021200004F077FB05F00F0028B9217C04F57172EB
:10213000206804F0EFFA00BF002084F8BC0300BF61
:1021400000BFC3E72DE9F04104460E461746984606
:1021500006F00F00C0EBC00104F13C0000EB81056C
:10216000EF60C5F814800020A8610120687006F0B7
:102170000F0028702069012800D12F6106F00F00A0
:1021800028B9227C2946206804F0D8F904E0227C92
:102190002946206804F08AFB0020BDE8F0812DE983
:1021A000FE4F044620680290029D206804F06DFDF9
:1021B00000287DD1206804F0A7FD08B9BDE8FE8F96
:1021C000206804F0A1FD00F00200022805D120687B
:1021D000406900F0020021684861206804F094FD25
:1021E00000F01000102846D12068806920F010000F
:1021F000216888610298D0F8209009F00F00C0EBA8
:10220000C00104F5FE7000EB810AC9F343400228C7
:102210001AD147F6F07009EA000030B3C9F30A1288
:10222000DAF80C10029804F074FDC9F30A11DAF818
:102230000C000844CAF80C00C9F30A11DAF81800B7
:102240000844CAF8180010E0C9F3434006280CD12E
:10225000082204F57171029804F05BFDC9F30A11BC
:10226000DAF818000844CAF818002068806940F0BD
:10227000100021688861206804F046FD00F4002009
:10228000B0F5002F52D10026206804F00DFD8346E2
:1022900049E00BF00100E8B3F1B2206804F027FD3B
:1022A000804608F0010058B1012105F5306000E0DA
:1022B00021E200EB461081603146204606F042FEE6
:1022C00008F00800082809D1082105F5306000EB66
:1022D000461081603146204606F002FE08F01000EC
:1022E000102805D1102105F5306000EB4610816003
:1022F00008F02000202805D1202105F5306000EBF2
:102300004610816008F40050B0F5005F08D14FF42A
:10231000005100E004E005F5306000EB46108160FC
:10232000761C4FEA5B0BBBF1000FB2D1206804F0C2
:10233000EBFC00F48020B0F5802F7ED1206804F003
:10234000A9FC8346002683E00BF0010000287CD026
:10235000F1B2206804F0B2FC804608F00100F0B34E
:1023600006F00F0101208840019040F634004159E9
:10237000019821EA000040F634014851012105F599
:10238000106000EB461081602069012824D1C6EB63
:10239000C60104F13C0000EB8100C6EBC602C16837
:1023A00004F13C0000EB820080680144C6EBC602E9
:1023B00004F13C0000EB8200C1606EB9C6EBC601BF
:1023C00004F13C0000EB8100406928B904F571720A
:1023D0000121206804F09EF9F1B2204600E001E0FE
:1023E000FFF754FD08F00800082805D1082105F57D
:1023F000106000EB4610816008F01000102805D135
:10240000102105F5106000EB4610816008F04000D7
:10241000402805D1402105F5106000EB4610816091
:1024200008F00200022805D1022105F5106000EB3A
:102430004610816008F0800001E00DE005E0802892
:1024400003D13146204606F0EFFC761C4FEA5B0BC9
:10245000BBF1000F7FF478AF206804F055FC00F06A
:102460000040B0F1004F1CD140F60400405920F06C
:10247000010140F60400415194F8F403012807D10A
:10248000002084F8F40300212046FFF7CBFC02E093
:10249000204600F063FA2068406900F0004021689F
:1024A0004861206804F030FC00F40060B0F5006F73
:1024B0000ED140F60800405900F0010010B120464E
:1024C00000F0A4FA2068406900F4006021684861C7
:1024D000206804F019FC00F48050B0F5805F7DD1D5
:1024E00040F60400405920F0010140F6040041513B
:1024F0001021206804F09CFB00273EE04FF67F315E
:1025000005F5106000EB4710816005F5106000EBE9
:102510004710006820F4001105F5106000EB47102B
:10252000016005F5106000EB4710006840F00061A5
:1025300005F5106000EB471001604FF67F3105F59F
:10254000306000EB4710816005F5306000EB47100C
:10255000006820F4001105F5306000EB47100160C1
:1025600005F5306000EB4710006840F0006105F5AC
:10257000306000EB471001607F1C6068B842BDD836
:1025800040F61C00405940F0011140F61C0041513A
:10259000206B70B1D5F8840840F00B01C5F88418A1
:1025A00040F64400405940F00B0140F644004151D0
:1025B0000FE040F61400405942F22B01084340F668
:1025C00014014851081F405940F00B014FF40160BD
:1025D0004151D5F8000820F4FE6000E00DE0C5F898
:1025E0000008217C04F57172206804F093F82068DB
:1025F000406900F4805021684861206804F084FB41
:1026000000F40050B0F5005F17D1206803F07EFDA4
:10261000206804F027FBE06000F0D4FA0090227BF1
:102620002068009904F0F8FB204600F07FF920684C
:10263000406900F4005021684861206804F064FBA0
:1026400000F00800082808D1204600F08EF9206824
:10265000406900F0080021684861206804F054FBDC
:1026600000F48010B0F5801F0AD1002631462046C4
:1026700000F043F82068406900F480102168486148
:10268000206804F041FB00F40010B0F5001F0AD1EF
:1026900000263146204600F039F82068406900F4F1
:1026A000001021684861206804F02EFB00F0804093
:1026B000B0F1804F08D12046FFF7E1FB2068406968
:1026C00000F0804021684861206804F01DFB00F0A4
:1026D000040004280FD12068D0F8049009F0040009
:1026E000042802D12046FFF7F1FB2068406840EA49
:1026F00009002168486000BF60E570B504460D46DA
:102700002946D4F8040403F051F970BD70B50446AD
:102710000D462946D4F8040403F060F970BD70B585
:102720008AB0044614B901200AB070BD266894F836
:10273000BD0328B9002084F8BC03204600F0A2F8AD
:10274000032084F8BD03F06B00F4807008B9002109
:102750002161206803F0EAFE282204F11001684696
:10276000FDF760FE94E80F0003F0E4FC20B10220C6
:1027700084F8BD030120D7E70021206804F0F9FAAE
:10278000002531E00121C5EBC50204F13C0000EB5E
:1027900082004170C5EBC50104F13C0000F82150F6
:1027A000C5EBC50100EB8100C5800021C5EBC5026A
:1027B00004F13C0000EB8200C170C5EBC50204F1DE
:1027C0003C0000EB82008160C5EBC50204F13C00D7
:1027D00000EB8200C160C5EBC50204F13C0000EBD8
:1027E00082004161681CC5B26068A842CAD8002551
:1027F0002AE00021C5EBC50204F5FE7000EB820063
:102800004170C5EBC50104F5FE7000F821500021B0
:10281000C5EBC50200EB8200C170C5EBC50204F533
:10282000FE7000EB82008160C5EBC50204F5FE700E
:1028300000EB8200C160C5EBC50204F5FE7000EB41
:1028400082004161681CC5B26068A842D1D82822C4
:1028500004F110016846FDF7E5FD94E80F0003F070
:1028600075FD20B1022084F8BD0301205CE7002043
:1028700084F83800012084F8BD03206803F054FD7B
:10288000002051E710B586B00446142101A8FDF7D9
:10289000FBFD2068B0F1A04F42D100BF00200090A6
:1028A0002048006840F001001E49086008460068A2
:1028B00000F00100009000BF00BF4FF4C050019035
:1028C0000220029000200390032004900A2005902B
:1028D00001A91548FEF73CFF00BF1248001D006823
:1028E00040F080000F49091D086000BF00200090E3
:1028F0000C481430006840F480400A4914310860E4
:102900000846006800F48040009000BF00BF00BF90
:10291000002211464320FFF733FA4320FFF720FA45
:1029200006B010BD303802400000024070B50446C9
:102930000125E06808B9002506E0E068022801D119
:10294000012501E0FDF74DFF2946D4F8040403F00A
:10295000E4F8D4F8040403F089F870BD10B5044617
:10296000D4F8040403F0B8F810BD10B50446D4F848
:10297000040403F0BCF810BD70B504460D4600BF5A
:1029800094F8BC03012801D1022070BD012084F815
:10299000BC0300BF84F838502946206804F01DFAB3
:1029A00000BF002084F8BC0300BF00BFEDE710B5F6
:1029B000044604F57171D4F8040403F0C5F810BDA1
:1029C00070B50446256800BF94F8BC03012801D106
:1029D000022070BD012084F8BC0300BFA06A01285A
:1029E00006D1A069012803D0A86B40F48030A86309
:1029F000206804F0FDF8206803F084FC00BF00208C
:102A000084F8BC0300BF00BFE3E7000010B5044634
:102A1000D4F8040403F0F5F82068D0F8000E40F074
:102A200001002168C1F8000E206A28B1034800683F
:102A300040F006000149086010BD000010ED00E004
:102A400070B504460D460CB9012070BD58480068A9
:102A500000F00700A84209D255490D7008460068E9
:102A600000F00700A84201D00120EEE7207800F036
:102A7000020002281DD1207800F00400042805D1AE
:102A80004C48006840F4E0504A490860207800F063
:102A90000800082805D14748006840F460404549CF
:102AA00008604448006820F0F000A16808434149EC
:102AB0000860207800F00100A8B36068012807D101
:102AC0003C4808380068C0F34040B8B90120BCE772
:102AD0006068022802D06068032807D135480838AA
:102AE0000068C0F3406048B90120AEE731480838BB
:102AF0000068C0F3400008B90120A6E72D4800682F
:102B000020F00300616808432A490860FEF71EFFB1
:102B1000064609E0FEF71AFF801B41F28831884221
:102B200002D9032091E707E02248006800F00C007A
:102B30006168B0EB810FEDD11D48006800F007001F
:102B4000A84209D91A490D700846006800F007002C
:102B5000A84201D0012078E7207800F00400042882
:102B600007D11448006820F4E050E1680843114997
:102B70000860207800F00800082808D10D48006897
:102B800020F46040216940EAC1000A49086000F071
:102B90003FF808490968C1F30311074A515CC8406E
:102BA0000649086006480068FFF790F800204CE7E7
:102BB000003C024008380240E0BD0008140000203C
:102BC0000C0000200148006870470000140000203D
:102BD00000B5FFF7F7FF04490968C1F38221034AF2
:102BE000515CC84000BD000008380240F0BD00083C
:102BF00000B5FFF7E7FF04490968C1F34231034A12
:102C0000515CC84000BD000008380240F0BD00081B
:102C10002DE9F047002400250026A146254800683C
:102C200000F00C0020B1042805D008283AD105E0B6
:102C3000DFF8849039E0DFF8849036E01D48001F0B
:102C4000006800F03F041B48001F006800F480008B
:102C500078B11A481749091F0968C1F38811A0FB08
:102C600001700146224600233846FDF71FFB05464A
:102C70000EE011480F49091F0968C1F38811A0FB34
:102C800001700146224600233846FDF70FFB05463A
:102C90000848001F0068C0F30140401C4600B5FB17
:102CA000F6F902E0DFF8109000BF00BF4846BDE82B
:102CB000F0870000083802400024F400001BB70031
:102CC000F8B504460CB90120F8BD207800F00100E9
:102CD000002874D0F948006800F00C0004280DD0DA
:102CE000F648006800F00C00082813D1F348001FD4
:102CF000006800F48000B0F5800F0BD1EF48083871
:102D00000068C0F34040002859D06068002856D1C0
:102D10000120D9E700BF6068B0F5803F08D1E748DF
:102D20000838006840F48030E449083908601EE043
:102D30006068B0F5A02F0DD1E0480838006840F475
:102D40008020DE49083908600846006840F4803079
:102D500008600CE0D9480838006820F48030D74972
:102D6000083908600846006820F48020086000BF29
:102D7000606890B1FEF7EAFD054606E0FEF7E6FD65
:102D8000401B642801D903209EE7CC48083800681E
:102D9000C0F340400028F1D011E0FEF7D7FD054612
:102DA00006E0FEF7D3FD401B642801D903208BE722
:102DB000C24808380068C0F340400028F1D12078AC
:102DC00000F0020002285FD1BC48006800F00C004F
:102DD00058B1BA48006800F00C0008281CD1B74868
:102DE000001F006800F48000B0B9B44808380068DB
:102DF000C0F3400020B1E068012801D0012063E762
:102E0000AE480838006820F0F800216940EAC100A7
:102E1000AA490839086037E0E06800B30120A849F2
:102E20000860FEF793FD054606E0FEF78FFD401BA8
:102E3000022801D9032047E7A04808380068C0F3FA
:102E400040000028F1D09D480838006820F0F800C4
:102E5000216940EAC10099490839086014E000205E
:102E600097490860FEF772FD054606E0FEF76EFD25
:102E7000401B022801D9032026E790480838006843
:102E8000C0F340000028F1D1207800F008000828A5
:102E90002CD16069A8B101208A490860FEF756FD6F
:102EA000054606E0FEF752FD401B022801D903202B
:102EB0000AE782486C300068C0F340000028F1D077
:102EC00014E000207F490860FEF740FD054606E05B
:102ED000FEF73CFD401B022801D90320F4E67748A9
:102EE0006C300068C0F340000028F1D1207800F079
:102EF0000400042870D1002770483830006800F0C2
:102F0000805090B900BF002000906C4838300068B5
:102F100040F080506949383108600846006800F088
:102F20008050009000BF00BF01276748006800F490
:102F30008070B0B96448006840F4807062490860ED
:102F4000FEF704FD054606E0FEF700FD401B0228E3
:102F500001D90320B8E65C48006800F480700028BE
:102F6000F2D000BFA068012808D15448683000683A
:102F700040F001005149683108601DE0A068052853
:102F80000DD14E486830006840F004004B4968316C
:102F900008600846006840F0010008600CE04748FF
:102FA0006830006820F00100444968310860084634
:102FB000006820F00400086000BFA068A8B1FEF718
:102FC000C5FC054609E0FEF7C1FC401B41F2883113
:102FD000884202D9032077E626E038486830006846
:102FE000C0F340000028EED013E0FEF7AFFC05462A
:102FF00008E0FEF7ABFC401B41F28831884201D962
:10300000032061E62D4868300068C0F340000028C6
:10301000EFD1012F07D129483830006820F08050C7
:1030200026493831086000BFA069002845D02348F0
:10303000006800F00C0008285DD0A069022845D186
:1030400000201F490866FEF781FC054606E0FEF7F2
:103050007DFC401B022801D9032035E617480838BB
:103060000068C0F340600028F1D1D4E907010843AB
:10307000616A40EA81110122A06AC2EB500041EA74
:1030800000412C20005D41EA00600C49091F0860E6
:1030900001200B490866FEF759FC054606E0FEF7DD
:1030A00055FC401B022801D903200DE603480838CF
:1030B0000068C0F340600028F1D049E008380240C1
:1030C00000004742800E4742007000400020214926
:1030D0000866FEF73BFC054606E0FEF737FC401BA2
:1030E000022801D90320EFE51B480068C0F34060C7
:1030F0000028F2D12CE0A069012800D1E4E51648AF
:10310000001D0668A069012820D006F48001E0694E
:1031100081421BD106F03F01206A814216D147F659
:10312000C0703040616AB0EB811F0FD106F44031AE
:103130000122A06AC2EB5000B1EB004F06D106F0AD
:1031400070612C20005DB1EB006F01D00120BBE568
:103150000020B9E5000047420038024010B504469F
:103160000CB9012010BD606A38B96068B0F5827F83
:1031700000D105E00021E16102E0002121616161EF
:103180000021A16294F8510028B9002084F8500071
:10319000204600F047F8022084F8510020680068BB
:1031A00020F0400021680860A08800F48270218926
:1031B00001F404410843A18901F400610843217C22
:1031C00001F002010843217D01F001010843218B38
:1031D00001F400710843217F01F0380108432021E8
:1031E000095D01F080010843218D01F4005108437D
:1031F000216808600421A06901EA104094F82410B5
:1032000001F010010843216848602068C06920F47B
:1032100000602168C86100206065012084F85100C9
:1032200000209FE710B586B00446142101A8FDF7E1
:103230002BF95049206888427ED100BF00200090C1
:103240004D48006840F480504B49086008460068CB
:1032500000F48050009000BF00BF00BF002000902D
:1032600045481438006840F00200434914390860AA
:103270000846006800F00200009000BF00BF00BFD9
:10328000002000900846006840F0010008600846F1
:10329000006800F00100009000BF00BF18200190FE
:1032A0000220029001200390032004900520059045
:1032B00001A93248FEF74CFA8020019002200290CA
:1032C00001200390032004900520059001A92C48BB
:1032D000FEF73EFA2B482C4908604FF0C06048606A
:1032E000002129488160C1604FF4806101610021A3
:1032F00041618161C1614FF4403101620421416249
:10330000032181620021C1620163FEF73DF908B12A
:10331000FDF767FA00BF1C48E064846300BF1948EA
:1033200018301A4908604FF0C060486040211748C3
:1033300081600021C16000E01AE04FF4806101610A
:10334000002141618161C1614FF4003101620421BA
:103350004162032181620021C1620163FEF714F919
:1033600008B1FDF73EFA00BF0848A064846300BFBF
:1033700006B010BD00300140443802400004024055
:103380000000024040640240A8050020080600201A
:1033900070B504462546681EB0F1807F01D3012038
:1033A0000FE0681E4FF0E02148610F214FF0FF3021
:1033B00006F03CFA00204FF0E02188610720086108
:1033C000002070BD7047704710B50346002200BF53
:1033D00093F83C00012801D1022010BD012083F8A0
:1033E0003C0000BF22F0FF00CC6840EA040222F457
:1033F00040708C6840EA040222F480604C6840EA25
:10340000040222F400600C6840EA040222F48050B6
:103410000C6940EA040222F400504C6940EA0402BC
:1034200022F48040CC6940EA04021868426400BF7C
:10343000002083F83C0000BF00BFCEE730B5024655
:103440000B4600BF92F83C00012801D1022030BD9C
:10345000012082F83C0000BF022082F83D00106885
:1034600044681068816824F0700418680443106888
:103470004460184D1068A8421BD01068B0F1804F0E
:1034800017D0154D1068A84213D0144D1068A842EB
:103490000FD0134D1068A8420BD0124D1068A842EF
:1034A00007D0114D1068A84203D0104D1068A842F3
:1034B00005D121F080015868014310688160012026
:1034C00082F83D0000BF002082F83C0000BF00BF32
:1034D000BDE700000000014000040040000800407B
:1034E000000C004000040140004001400018004072
:1034F00010B504460CB9012010BD94F83D0028B960
:10350000002084F83C00204600F026F8022084F8D1
:103510003D00211D206801F0E9FC012084F84600EF
:1035200000BF84F83E0001213F2001554020015595
:103530004120015500BF00BF012084F84200432014
:103540000155442001554520015500BF012084F854
:103550003D000020D0E7000038B504464849206807
:1035600088420FD100BF002000904648006840F01C
:103570000100444908600846006800F0010000901E
:1035800000BF7CE040492068884211D100BF002084
:1035900000903C48001F006840F002003949091FB4
:1035A00008600846006800F00200009000BF66E076
:1035B00036492068884211D100BF00200090314870
:1035C000001F006840F004002E49091F08600846EB
:1035D000006800F00400009000BF50E02C49206813
:1035E00088421AD100BF002000902648001F0068C2
:1035F00040F008002349091F08600846006800F0F1
:103600000800009000BF00BF002201213220FEF719
:10361000B7FB3220FEF7A4FB31E01E492068884248
:103620000FD100BF002000901648006840F4003021
:10363000144908600846006800F40030009000BF9C
:103640001DE015492068884219D100BF0020009074
:103650000C48001F006840F040000A49091F08603C
:103660000846006800F04000009000BF00BF002244
:1036700001212B20FEF784FB2B20FEF771FB38BDC8
:1036800000000140443802400004004000080040AF
:10369000000C00400044014000180040014691F831
:1036A0003D00012801D001207047022081F83D0033
:1036B0000868C06840F001000B68D8601A4B0868C1
:1036C00098421BD00868B0F1804F17D0174B08689C
:1036D000984213D0164B086898420FD0154B0868D3
:1036E00098420BD0144B0868984207D0134B0868D7
:1036F000984203D0124B086898420CD10868806841
:1037000000F00702062A0CD00868006840F00100AB
:103710000B68186005E00868006840F001000B685D
:1037200018600020C0E700000000014000040040D5
:1037300000080040000C004000040140004001402F
:10374000001800402DE9F04104460D46002700BF57
:1037500094F83C00012802D10220BDE8F08101204C
:1037600084F83C0000BF022084F83D002068866891
:1037700026F0770626F47F46206886602868502861
:1037800033D00CDC202850D004DC00284BD010288B
:1037900051D149E0302849D040284CD139E0602847
:1037A0002DD0702807D0B0F5805F03D0B0F5005F52
:1037B00041D10DE041E0D5E902136A68206801F0CB
:1037C00001FC2068866846F077062068866034E051
:1037D000D5E902136A68206801F0F4FB206880686C
:1037E00040F480402168886027E0EA6869682068C2
:1037F00005F00DFD5021206805F000FD1DE0EA6890
:103800006968206805F016FD6021206805F0F6FC67
:1038100013E0EA686968206805F0F9FC4021206837
:1038200005F0ECFC09E000BF00BF00BF296820687C
:1038300005F0E4FC01E0012700BF00BF012084F88F
:103840003D0000BF002084F83C0000BF384684E7FC
:10385000704710B5044620680069C0F34000D8B135
:103860002068C068C0F34000B0B16FF0020021686A
:103870000861012020772068806900F0030018B1FA
:103880002046FFF7E5FF05E0204600F02BF9204633
:1038900000F0DFF90020207720680069C0F3800085
:1038A000D8B12068C068C0F38000B0B16FF00400E8
:1038B00021680861022020772068806900F4407048
:1038C00018B12046FFF7C4FF05E0204600F00AF9D2
:1038D000204600F0BEF90020207720680069C0F380
:1038E000C000D8B12068C068C0F3C000B0B16FF0AC
:1038F000080021680861042020772068C06900F072
:10390000030018B12046FFF7A3FF05E0204600F0B2
:10391000E9F8204600F09DF9002020772068006932
:10392000C0F30010D8B12068C068C0F30010B0B177
:103930006FF0100021680861082020772068C069B6
:1039400000F4407018B12046FFF782FF05E02046E2
:1039500000F0C8F8204600F07CF9002020772068AD
:10396000006900F0010058B12068C06800F0010053
:1039700030B16FF0010021680861204600F06AF95B
:1039800020680069C0F3C01058B12068C068C0F357
:10399000C01030B16FF08000216808612046FFF749
:1039A00011FD20680069C0F3801058B12068C0681C
:1039B000C0F3801030B16FF04000216808612046EC
:1039C00000F0F0F920680069C0F3401058B1206899
:1039D000C068C0F3401030B16FF02000216808616A
:1039E0002046FFF7F0FC10BD10B586B00446142148
:1039F00001A8FCF749FD3449206888421ED100BF68
:103A0000002000903148006840F010002F49086005
:103A10000846006800F01000009000BF00BF4FF49F
:103A20000050019002200290002003900490012099
:103A3000059001A92648FDF78BFE43E02549206843
:103A400088421DD100BF002000902048006840F04F
:103A500002001E4908600846006800F0020000905D
:103A600000BF00BF88150190022002900020039043
:103A700004900220059001A91748FDF769FE21E096
:103A80001649206888421DD100BF002000900F48D1
:103A9000006840F020000D4908600846006800F00A
:103AA0002000009000BF00BF402001900220029043
:103AB00001200390022004900320059001A90848EA
:103AC000FDF746FE06B010BD000001403038024050
:103AD0000010024000080040000402400044014081
:103AE0000014024070472DE9F04104460D46164689
:103AF000002700BF94F83C00012802D10220BDE855
:103B0000F081012084F83C0000BF36B1042E1BD0A8
:103B1000082E31D00C2E5ED145E02946206805F0F4
:103B2000CFFA2068806940F0080021688861206829
:103B3000806920F004002168886120688069296913
:103B400008432168886148E02946206801F046FA68
:103B50002068806940F4006021688861206880697D
:103B600020F480602168886120688069296940EAC2
:103B700001202168886130E02946206805F0D8FAE4
:103B80002068C06940F008002168C8612068C069E9
:103B900020F004002168C8612068C06929690843D1
:103BA0002168C86119E02946206805F0FDFA2068FF
:103BB000C06940F400602168C8612068C06920F4D1
:103BC00080602168C8612068C069296940EA0120D5
:103BD0002168C86101E0012700BF00BF00BF0020CD
:103BE00084F83C0000BF384689E710B504460CB99C
:103BF000012010BD94F83D0028B9002084F83C0055
:103C0000204600F025F8022084F83D00211D2068A0
:103C100001F06CF9012084F8460000BF84F83E00F2
:103C200001213F200155402001554120015500BF91
:103C300000BF012084F84200432001554420015573
:103C40004520015500BF012084F83D000020D0E749
:103C50007047704710B5044637492068884203D141
:103C600036494868804766E02068B0F1804F03D14C
:103C70003349486880475EE032492068884203D172
:103C800031494868804756E030492068884203D16E
:103C90002F49486880474EE02E492068884203D16A
:103CA0002D494868804746E02C492068884203D166
:103CB0002B49486880473EE02A492068884203D162
:103CC00029494868804736E028492068884203D15E
:103CD0002749486880472EE026492068884203D15A
:103CE00025494868804726E024492068884203D156
:103CF0002349486880471EE022492068884203D152
:103D000021494868804716E020492068884203D14D
:103D10001F49486880470EE01E492068884203D149
:103D20001D494868804706E01C492068884202D146
:103D30001B494868804710BD00000140B8010020C1
:103D4000C001002000040040C8010020000800401D
:103D5000D0010020000C0040D801002000100040DD
:103D6000E001002000140040E801002000040140B0
:103D7000F001002000400140F80100200044014013
:103D80000002002000480140080200200018004006
:103D900010020020001C00401802002000200040FB
:103DA000200200207047F8B504460E46174694F8E6
:103DB0003E00202836D106B10FB90120F8BD00BF62
:103DC00094F83C00012801D10220F7E7012084F893
:103DD0003C0000BF20633A463146204601F03CF9E2
:103DE0000546EDB9206B012819D100BF00200090D5
:103DF00020680068009020684068009000BF00BF05
:103E000000BF00BF21680C3151E8001F41F01000D5
:103E100021680C3141E80002002AF3D100E00125BD
:103E20002846CBE70220C9E770B504460D4639495C
:103E3000206888420ED138482946D0F808218430BD
:103E400090473548B0F8042100F184012046FFF77F
:103E5000AAFF5DE03149206888420ED130482946EA
:103E6000D0F80821843090472D48B0F8042100F1A3
:103E700084012046FFF797FF4AE02A4920688842DC
:103E80000ED129482946D0F8082184309047264889
:103E9000B0F8042100F184012046FFF784FF37E0E9
:103EA0002249206888420ED121482946D0F80821AD
:103EB000843090471E48B0F8042100F18401204668
:103EC000FFF771FF24E01B49206888420ED11A4891
:103ED0002946D0F80821843090471748B0F80421CB
:103EE00000F184012046FFF75EFF11E013492068CE
:103EF00088420DD112482946D0F8082184309047D5
:103F00000F48B0F8042100F184012046FFF74BFF71
:103F100070BD000000100140B40B002000440040C0
:103F2000C00C002000480040CC0D0020004C004098
:103F3000D80E002000500040E40F00200014014083
:103F4000F0100020704700002DE9F84F044620686B
:103F500005682068C668206847694FF00009CA46AE
:103F600005F00F09B9F1000F0AD105F0200038B1B2
:103F700006F0200020B1204605F0AEFABDE8F88F2B
:103F8000B9F1000F7CD007F0010018B906F4907069
:103F9000002875D005F0010030B106F4807018B12A
:103FA000206C40F00100206405F0040030B107F0FF
:103FB000010018B1206C40F00200206405F00200FE
:103FC00030B107F0010018B1206C40F0040020640B
:103FD00005F0080048B106F0200010B907F0010014
:103FE00018B1206C40F008002064206C002846D0F6
:103FF00005F0200028B106F0200010B1204605F0A1
:104000006BFA20684069C0F3801A206C00F0080049
:1040100010B9BAF1000F2DD0204605F020FB206822
:10402000406900F04000402820D100BF00BF216857
:10403000143151E8001F21F040002168143141E89B
:104040000002002AF3D100BFA06B50B17548A16BEC
:104050000865A06BFDF763F988B1A06B016D884717
:104060000DE02046FFF76EFF09E009E02046FFF76C
:1040700069FF04E02046FFF765FF002020647DE72C
:10408000206B012876D105F01000002872D006F0D0
:1040900010000028FAD000BF0020009020680068BF
:1040A000009020684068009000BF00BF2068406911
:1040B00000F0400040285ED1A06B006840681FFA05
:1040C00080F8B8F1000F54D0A08D404551DDA4F820
:1040D0002E80A06BC069B0F5807F43D000BF00BFC9
:1040E00021680C3151E8001F21F4807021680C31E7
:1040F00041E80002002AF3D100BF00BF00BF2168E1
:10410000143151E8001F21F001002168143141E809
:104110000002002AF3D100BF00BF00BF21681431A4
:1041200051E8001F21F040002168143141E80002ED
:10413000002AF3D100BF202084F83E000020206335
:1041400000BF00BF21680C3151E8001F21F01000B2
:1041500021680C3141E80002002AF3D100BFA06BB6
:10416000FDF787F8A08DE28D801A81B22046FFF717
:104170005BFE03E740E0A08DE18D401A1FFA80F856
:10418000E08DC0B3B8F1000F35D000BF00BF21688B
:104190000C3151E8001F21F4907021680C3141E886
:1041A0000002002AF3D100BF00BF00BF2168143114
:1041B00051E8001F21F001002168143141E800029C
:1041C000002AF3D100BF202084F83E0000202063A5
:1041D00000BF00BF21680C3151E8001F21F0100022
:1041E00021680C3141E80002002AF3D100BF4146AA
:1041F0002046FFF719FEC1E605F0800030B106F059
:10420000800018B1204605F0E3F9B7E605F040005C
:1042100030B106F0400018B1204605F0C1FAADE615
:1042200000BFABE6C197000810B504460CB90120E9
:1042300010BDA06900B100E000BF94F83D0028B9AE
:10424000002084F83C00204600F028F8242084F860
:104250003D002068C06820F400502168C8602046F6
:1042600005F024F82068006920F490402168086176
:104270002068406920F02A00216848612068C068F1
:1042800040F400502168C86000202064202084F899
:104290003D0084F83E000020CAE7000010B586B05B
:1042A0000446142101A8FCF7EFF8C74920688842AA
:1042B0007ED100BF00200090C448006840F010008C
:1042C000C24908600846006800F01000009000BF76
:1042D00000BF00BF00200090BC481438006840F0C8
:1042E0000200BA49143908600846006800F002006C
:1042F000009000BF00BF00BF00200090084600688B
:1043000040F0010008600846006800F001000090DD
:1043100000BF00BF80200190022002900020039087
:10432000032004900720059001A9A948FDF710FA81
:104330004FF40070019002200290002003900320AF
:1043400004900720059001A9A248FDF701FAA248B0
:10435000A24908604FF00060486000219F488160DA
:10436000C1604FF480610161002141618161C161DF
:104370004FF4403101620421416203218162002136
:10438000C1620163FDF700F908B1FCF72AFA00BF2A
:104390009248A063846300BF8F4830309049086022
:1043A0004FF00060486040218D488160002100E0AE
:1043B0001FE0C1604FF480610161002141618161B2
:1043C000C1614FF48031016200214162FDF7DCF8E8
:1043D00008B1FCF706FA00BF81486063846300BF40
:1043E000002211462520FDF7CBFC2520FDF7B8FC67
:1043F000E8E07C492068884260D100BF002000903E
:104400007248001F006840F480207049091F08604E
:104410000846006800F48020009000BF00BF00BF85
:104420000020009069481438006840F00400674993
:10443000143908600846006800F00400009000BFCE
:1044400000BF4FF4406001900220029000200390D2
:10445000032004900720059001A96348FDF778F92F
:104460006248634908604FF000604860002160487E
:104470008160C1604FF4806101610021416181610F
:10448000C1614FF4803101620421416203218162E4
:104490000021C1620163FDF777F808B1FCF7A1F9CB
:1044A00000BF5348A063846300BF00221146272049
:1044B000FDF766FC2720FDF753FC83E04D4920689B
:1044C00088427FD100BF002000904048006840F043
:1044D00020003E4908600846006800F02000009077
:1044E00000BF00BF00BF00200090384814380068AB
:1044F00040F040003549143908600846006800F073
:104500004000009000BF00BF4FF4844001900220A3
:10451000029000200390032004900820059001A938
:104520003548FDF715F92C48603834490860800596
:104530004860002131488160C1604FF480610161B1
:10454000002141618161C1614FF4003101620421A8
:104550004162032181620021C1620163FDF714F809
:1045600008B1FCF73EF900BF2448A063846300BF94
:1045700019481830224908604FF0206048604021F7
:104580001F4881600021C1604FF4806101610021FA
:1045900041618161C1614FF480310162002141625A
:1045A000FCF7F2FF08B1FCF71CF900BF1448606388
:1045B000846300BF002205214720FDF7E1FB47206F
:1045C000FDF7CEFB06B010BD00100140443802409C
:1045D000000402400000024088640240E408002019
:1045E00044090020004800400008024028600240C2
:1045F000A40900200014014000180240040A002011
:10460000640A002070477047F7B50446154694F8D1
:104610003D00202846D1019800B10DB90120FEBD12
:1046200000BF94F83C00012801D10220F7E70120E7
:1046300084F83C0000BF01982062A584E584002036
:104640002064212084F83D001748616BC863174837
:10465000616B08641648616BC8640020616B086573
:1046600001AE23681A1D31682B46606BFDF702F816
:104670006FF040002168086000BF002084F83C0013
:1046800000BF00BF00BF2168143151E8001F41F096
:1046900080002168143141E80002002AF3D100BFF4
:1046A0000020BCE70220BAE7D59700085196000821
:1046B0005D9200087047704700BFFEE710B50F48D5
:1046C0000F4908600320486000210D488160C160E7
:1046D0004FF4C02101614FF4A00141610021017636
:1046E0000121417681760021C17601774177FCF77F
:1046F000B2FB08B1FCF775F810BD00000064004083
:10470000EC03002010B50F480F49086003204860F3
:1047100000210D488160C1604FF4802101614FF498
:10472000E00141610021017601214176817600217D
:10473000C17601774177FCF78EFB08B1FCF751F8A1
:1047400010BD0000006800401404002008B500BF40
:10475000002000903248006840F4001030490860A2
:104760000846006800F40010009000BF00BF00BFC2
:10477000002000900846006840F480000860084669
:10478000006800F48000009000BF00BF00221146C6
:104790000C20FDF7F5FA0C20FDF7E2FA0022114695
:1047A0000D20FDF7EDFA0D20FDF7DAFA0022114693
:1047B0000F20FDF7E5FA0F20FDF7D2FA00220521C0
:1047C0003920FDF7DDFA3920FDF7CAFA002205216C
:1047D0003A20FDF7D5FA3A20FDF7C2FA0022114639
:1047E0003B20FDF7CDFA3B20FDF7BAFA0022114637
:1047F0004420FDF7C5FA4420FDF7B2FA0022052156
:104800004520FDF7BDFA4520FDF7AAFA0022114622
:104810004620FDF7B5FA4620FDF7A2FA08BD0000D4
:104820003038024000B587B0142102A8FBF72CFEF7
:1048300000BF002001906E48006840F002006C4903
:1048400008600846006800F00200019000BF00BF49
:1048500000BF002001900846006840F0400008605A
:104860000846006800F04000019000BF00BF00BF94
:10487000002001900846006840F0010008600846EA
:10488000006800F00100019000BF00BF00BF0020E1
:1048900001900846006840F008000860084600687B
:1048A00000F00800019000BF00BF00BF0020019091
:1048B0000846006840F0040008600846006800F000
:1048C0000400019000BF00BF00BF00200190084617
:1048D000006840F0800008600846006800F0800032
:1048E000019000BF00BF00BF002001900846006893
:1048F00040F0200008600846006800F020000190A9
:1049000000BF00BF00BF002001900846006840F0D3
:10491000100008600846006800F01000019000BF19
:1049200000BF012240213348FDF70AF8012210217F
:104930003148FDF705F8012211463048FDF700F82F
:1049400040200290012003900490059002A929487C
:10495000FCF7FEFE092002904FF4041003900120A2
:10496000049002A92348FCF7F3FE102002900120D6
:10497000039004900220059002A91F48FCF7E8FE6E
:10498000302002904FF4041003900120049002A9FB
:104990001B48FCF7DDFE01200290039004900220EA
:1049A000059002A91548FCF7D3FE0022022106203B
:1049B000FDF7E6F90620FDF7D3F9002201210920D1
:1049C000FDF7DEF90920FDF7CBF9002201210A20CD
:1049D000FDF7D6F90A20FDF7C3F9002201211720BF
:1049E000FDF7CEF91720FDF7BBF907B000BD0000B9
:1049F000303802400018024000000240000402402B
:104A00000008024010B50B480B4908600B4848608D
:104A1000002109488160C1604FF48041016100219B
:104A200041618161C1610162FCF796FF08B1FBF74A
:104A3000D8FE10BD005C00403C040020801A060037
:104A400010B50F480F4908604FF48270486000218C
:104A50000C488160C160022101610121416149026C
:104A600081613821C16100210162416281620A21B4
:104A7000C162FEF773FB08B1FBF7B3FE10BD000087
:104A8000003001405005002000B587B01C21684669
:104A9000FBF7FAFC15481649086000204860002121
:104AA0001348816041F28731C16000210161816159
:104AB000FEF71EFD08B1FBF794FE0D48FFF795F8D1
:104AC00008B1FBF78EFE602000900020019002905C
:104AD0000490002269460648FFF705F808B1FBF785
:104AE00080FE0348FEF780FF07B000BD0044014090
:104AF000880700201FB500200090019002900390CD
:104B00000E480F4908605320486000210C4881601E
:104B100040F2E731C160002101618161FEF7E8FCEC
:104B200008B1FBF75EFE4FF48050009069460448E0
:104B3000FEF708FE08B1FBF754FE1FBD0018004049
:104B4000D007002000B595B000201190129013906E
:104B500014900F9010901C2108A8FBF795FC2021C1
:104B60006846FBF791FC2B482B490860A72048605A
:104B700000212948816041F28731C1600021016133
:104B800041618161FEF7B4FC08B1FBF72AFE4FF4E6
:104B90008050119011A92048FEF7D4FD08B1FBF711
:104BA00020FE1D48FFF721F808B1FBF71AFE002090
:104BB0000F9010900FA91848FEF740FC08B1FBF7C2
:104BC00010FE60200890002009900A900B900C9035
:104BD0000D900E90082208A90F48FEF784FF08B137
:104BE000FBF7FFFD002000900190029003900490DD
:104BF0004FF4005005900020079069460648FEF7E4
:104C0000E3FB08B1FBF7EDFD0348FEF7EDFE15B041
:104C100000BD0000000001406806002000B587B01C
:104C20000020039004900590069001900290144893
:104C3000144908605320486000211248816040F206
:104C4000E731C160002101618161FEF751FC08B1CB
:104C5000FBF7C7FD4FF48050039003A90948FEF706
:104C600071FD08B1FBF7BDFD00200190029001A984
:104C70000448FEF7E3FB08B1FBF7B3FD07B000BD46
:104C800000040040B006002000B58DB0002009905F
:104C90000A900B900C90079008901C216846FBF737
:104CA000F3FB2048204908600020486000211E488E
:104CB000816040F2E731C160002101618161FEF74E
:104CC00017FC08B1FBF78DFD4FF48050099009A93E
:104CD0001548FEF737FD08B1FBF783FD1248FEF7D4
:104CE00084FF08B1FBF77DFD00200790089007A91D
:104CF0000D48FEF7A3FB08B1FBF773FD60200090A1
:104D00000020019002900490082269460648FEF7B0
:104D1000EAFE08B1FBF765FD0348FEF765FE0DB03E
:104D200000BD000000080040F806002000B587B074
:104D30000020039004900590069001900290144882
:104D4000144908605320486000211248816040F2F5
:104D5000E731C160002101618161FEF7C9FB08B143
:104D6000FBF73FFD4FF48050039003A90948FEF77D
:104D7000E9FC08B1FBF735FD00200190029001A984
:104D80000448FEF75BFB08B1FBF72BFD07B000BD45
:104D9000000C00404007002010B50B480B4908608C
:104DA0004FF4E1304860002108488160C160016132
:104DB0000C21416100218161C161FFF735FA08B121
:104DC000FBF70FFD10BD0000001001401808002087
:104DD00010B50C480C4908600C4848604FF48051ED
:104DE000094881600021C1604FF4806101610421A4
:104DF000416100218161C161FFF716FA08B1FBF73B
:104E0000F0FC10BD004800405C080020A0860100B6
:104E100010B50B480B4908604FF4E13048600021A1
:104E200008488160C16001610C21416100218161FC
:104E3000C161FFF7F9F908B1FBF7D3FC10BD000021
:104E400000140140A008002010B500220D490E48B2
:104E500000F045FC08B1FBF7C4FC0C490A4800F01F
:104E60000DFF08B1FBF7BDFC0949074800F0B9FA8E
:104E700008B1FBF7B6FC044800F02AFF08B1FBF7C5
:104E8000B0FC10BD64020020C81E0020DC0200201F
:104E9000B802002000BFFEE700BFFEE710B50248E1
:104EA000FDF77DF910BD0000A43300207047704766
:104EB00010B5FCF7E1FE10BD0348006840F4700037
:104EC000014908607047000088ED00E010B5024815
:104ED000FEF7BFFC10BD00004007002010B50248DF
:104EE000FEF7B7FC10BD0000D007002010B5026827
:104EF000294B98420ED0B0F1804F0BD0274B9842EF
:104F000008D0274B984205D0264B984202D0264B1A
:104F1000984203D122F070024B681A431E4B98420C
:104F200020D0B0F1804F1DD01C4B98421AD01C4BA2
:104F3000984217D01B4B984214D01B4B984211D06B
:104F40001A4B98420ED01A4B98420BD0194B9842EC
:104F500008D0194B984205D0184B984202D0184BF4
:104F6000984203D122F44072CB681A4322F08003A6
:104F70004C6943EA040202608B68C3620B68836277
:104F8000054B984202D0084B984201D10B6903634C
:104F90000123436110BD00000000014000040040F7
:104FA00000080040000C00400004014000400140A7
:104FB000004401400048014000180040001C00402F
:104FC0000020004030B50C46816821F47F4142EA60
:104FD000032525432943816030BD000030B5056AB3
:104FE00025F010050562026A4368846924F4E044F0
:104FF00024F440740D6844EA052422F020028D68F0
:1050000042EA0512124DA84200D103E0114DA84218
:1050100007D100BF22F08002CD6842EA051222F0DB
:1050200040020B4DA84202D00A4DA84209D123F4F8
:10503000806323F400634D6943EA85038D6943EA85
:105040008503436084614D688563026230BD000062
:10505000000001400004014077B581B004461546C8
:105060000298A062A58500202064222084F83E00DA
:105070002948A16BC8632948A16B08642848A16B23
:10508000C8640020A16B086502AE32682368191D50
:105090002B46A06BFCF7EEFA00BF002000902068C2
:1050A0000068009020684068009000BF00BF00BF0B
:1050B000002084F83C0000BF00BF00BF21680C3115
:1050C00051E8001F41F4807021680C3141E8000272
:1050D000002AF3D100BF00BF00BF2168143151E89E
:1050E000001F41F001002168143141E80002002A4C
:1050F000F3D100BF00BF00BF2168143151E8001F89
:1051000041F040002168143141E80002002AF3D147
:1051100000BF002004B070BDF19600083196000871
:105120005D92000810B50248FEF70EFF10BD0000AA
:105130001808002010B50248FEF706FF10BD000059
:105140005C08002010B50248FEF7FEFE10BD00000E
:10515000A00800202DE9F04104460D46D4F8C472A1
:10516000D4F8BC0210B90320BDE8F081D4F8BC62C9
:1051700005EB850104F1140000EB8100406808B3E1
:1051800005EB850104F1140000EB8100C5EBC502BD
:10519000416807F13C0000EB82008068B1FBF0F24F
:1051A00000FB121070B9002105EB850204F1140018
:1051B00000EB8200416000231A462946204600F099
:1051C0002AFD0FE00020C6F81402D4F8C0020069DE
:1051D00040B1D6F80802D4F8C0122A460B6906F589
:1051E000047198470020BFE770B504460E46D4F816
:1051F000BC52D4F8BC0208B9032070BD3146204629
:1052000000F07BFBC5F80C02D5F80402D4F8C012FC
:10521000CA6805F5037190470020EEE770B50446B3
:105220000D468121204600F08AFA002121870121C4
:10523000204600F084FA0021A4F87811822120464B
:1052400000F07DFA0021A4F84C10A4F84E10D4F818
:10525000BC0250B1D4F8C01248688047D4F8BC02F0
:1052600000F0E4FE0020C4F8BC02002070BD70B560
:105270000546D5F8BC420CB9032070BDD5F8C00274
:1052800078B194F80002FF280BD094F8012294F82A
:105290000002D5F8C0128B6821469847FF2084F899
:1052A00000020020E9E7000001460A2008800148CA
:1052B00070470000D00200200146432008800148CA
:1052C0007047000058030020014643200880014831
:1052D0007047000014030020014643200880014865
:1052E000704700009C03002070B504460E464FF442
:1052F000077000F09DFE054625B90020C4F8BC02E9
:10530000022070BDC4F8BC52207CA0B94FF40073D9
:1053100002228121204600F079FB012121874B02E6
:105320000222204600F072FB0121A4F8781110211E
:10533000A4F84E1012E0402302228121204600F002
:1053400065FB0121218740230222204600F05EFBFD
:105350000121A4F878111021A4F84E10082303228B
:105360008221204600F052FB0121A4F84C10D4F811
:10537000C012086880470020C5F81402C5F818025A
:10538000207C40B94FF4007301212046D5F8042257
:1053900000F054FB06E0402301212046D5F804220A
:1053A00000F04CFB0020ACE770B50446D4F8BC52CA
:1053B000D4F8BC0208B9032070BD207C40B94FF47A
:1053C000007301212046D5F8042200F037FB06E0E7
:1053D000402301212046D5F8042200F02FFB0020B5
:1053E000EAE7024609B903207047C2F8C01200205C
:1053F000FAE702460B46D2F8BC1209B903207047FF
:10540000C1F804320020FAE710B503460C46D3F881
:10541000BC1209B9032010BDC1F80842C1F810221E
:105420000020F8E72DE9FC4105460C46D5F8BC62A2
:10543000002001900090804616B90320BDE8FC8151
:10544000207800F0600078B320286FD1E08818B38E
:10545000207800F0800098B1E2886078D5F8C0121A
:105460008B6831469847E088072801D9072000E07B
:10547000E08807463A463146284600F0D2F812E066
:10548000607886F80002A07986F80102E288314649
:10549000284600F0A5F806E06078D5F8C012002292
:1054A0008B682146984748E0FFE7607830B10128D3
:1054B00031D00A2813D00B282ED121E095F89C0278
:1054C000032805D102226946284600F0AAF805E023
:1054D0002146284600F078F84FF0030823E095F8BD
:1054E0009C02032805D1012201A9284600F099F861
:1054F00005E02146284600F067F84FF0030812E067
:1055000095F89C02032805D02146284600F05CF857
:105510004FF0030807E006E02146284600F054F863
:105520004FF0030800BF00BF07E0FFE72146284611
:1055300000F04AF84FF0030800BF00BF40467DE787
:1055400070B50546D5F8BC420126D5F8BC0208B9AD
:10555000032070BDD4F8140270B90120C4F81402FD
:10556000D4F81012E96281212846D4F81032D4F818
:10557000082200F050FB00263046EAE770B50446EA
:105580000D46D4F8B80228B1D4F8B80229464268CA
:1055900020469047002070BD70B506460C46154663
:1055A0002B4622460021304600F048FA002070BD0C
:1055B00070B506460C4615462B462246002130465D
:1055C00000F029FB002070BD70B504460D46802117
:1055D000204600F0F4FA0021204600F0F0FA70BDF9
:1055E00070B504460E4615460320C4F894024FF4E5
:1055F000AC700551001D05512B4632460021204656
:1056000000F01CFA002070BD10B504460520C4F857
:10561000940200231A461946204600F00FFA002093
:1056200010BD70B504460E4615460220C4F894021B
:10563000A561E5612B4632460021204600F0EBFAD9
:10564000002070BD10B504460420C4F89402002365
:105650001A461946204600F0DEFA002010BD2DE95A
:10566000F04107460D46904600240FB9BDE8F08191
:105670003E46304603F0E6F8022101EB4000A8F870
:10568000000098F800002855601CC4B2032028557B
:10569000601CC4B208E030782855761C601CC4B287
:1056A00000202855601CC4B230780028F3D100BF18
:1056B000DCE70146002031B1012906D0022906D0DD
:1056C000032908D105E0002007E0032005E00120C0
:1056D00003E0032001E0032000BF00BF70472DE975
:1056E000F04104460D46164614B90320BDE8F0818A
:1056F0000020C4F8B802C4F8C002C4F8CC020DB14E
:10570000C4F8B452012084F89C022670204600F0B0
:10571000FDF807463846E9E72DE9F04104460D4615
:10572000002600272946D4F8C402FCF70BFC0646E5
:105730003046FFF7BEFF07463846BDE8F0812DE949
:10574000F04104460D46002600272946D4F8C4023D
:10575000FCF7C3FB06463046FFF7ABFF074638466B
:10576000BDE8F0812DE9F04104460F469046002F38
:1057700054D104F11405D4F89402022843D1D5E998
:10578000020188420FD9D5E90201401AA8604146BA
:105790002046AA68FFF70CFF00231A461946204648
:1057A00000F04CF92FE0D5E90210884217D1E968E2
:1057B0006868884213D36868D4F8981288420ED279
:1057C000002211462046FFF7F3FE0020C4F898029D
:1057D00000231A461946204600F030F913E094F8E9
:1057E0009C02032808D1D4F8B802C06820B1D4F8CC
:1057F000B802C168204688478021204600F0DFF9C2
:105800002046FFF701FF94F8A002012819D1204695
:1058100000F04BFA002084F8A00212E094F89C02F9
:1058200003280ED1D4F8B802406950B1D4F8B802B8
:105830003946426920469047064616B13046BDE8D3
:10584000F0810020FBE72DE9F04105460F46904628
:105850005FBB05F5AA74D5F89402032838D1D4E9C2
:105860000201884210D9D4E90201401AA060D4E9AB
:105870000201884201D2A06800E0E0680246414689
:105880002846FFF789FE23E095F89C02032808D1FB
:10589000D5F8B802006920B1D5F8B80201692846E8
:1058A00088472846FFF7CEFE12E095F89C020328B1
:1058B0000ED1D5F8B802806950B1D5F8B802394692
:1058C000826928469047064616B13046BDE8F08109
:1058D0000020FBE701460020704710B50446012078
:1058E00084F89C02D4F8B80228B12179D4F8B8021F
:1058F000426820469047002010BD70B504460D4612
:105900002946D4F8C402FCF75BFB70BD10B5044611
:10591000207800282AD11648C0F80444C4F8C402EC
:105920004FF0A0401249086004204860022110484E
:10593000C16000210161022181610021C161016218
:105940004162C1620163FCF7EAFE08B1FAF749FF60
:1059500080210748FCF767FA402200210448FCF741
:1059600067FA802201210248FCF762FA002010BD8C
:10597000A433002010B50246D2F8C43201F08000F2
:10598000802809D101F07F00C0EBC00403F13C0086
:1059900000EB8400807810BD01F07F00C0EBC004F4
:1059A00003F5FE7000EB84008078F4E770B50446E0
:1059B0000D46D4F8B80208B9032070BD94F89C02D3
:1059C000032809D1D4F8B802006A28B1D4F8B80283
:1059D0002946026A204690470020EEE770B504464B
:1059E0000D46D4F8B80208B9032070BD94F89C02A3
:1059F000032809D1D4F8B802406A28B1D4F8B80213
:105A00002946426A204690470020EEE72DE9F047FC
:105A100004460F4615461E464FF00008C1462B4669
:105A200032463946D4F8C402FCF7D5FA80464046DF
:105A3000FFF73FFE81464846BDE8F0872DE9F04775
:105A400004460D4616461F464FF00008C1463B4629
:105A500032462946D4F8C402FCF703FB8046404690
:105A6000FFF727FE81464846BDE8F08710B504469B
:105A7000012084F89C020020C4F894026060C4F8FD
:105A8000A402D4F8B80208B9032010BDD4F8BC02AF
:105A900048B1D4F8B802406828B12179D4F8B802E6
:105AA0004268204690474023002211462046FFF7D7
:105AB000ADFF01214FF4B27001534021001F01518D
:105AC0004023002280212046FFF7A0FF0121A1846E
:105AD000402121620020D8E7014691F89C02042869
